:020000040800F2
:10000000A00B002001010008F12600088D23000844
:10001000ED26000859050008652F000800000000C3
:100020000000000000000000000000005F2C00083D
:10003000D905000800000000B12A0008612C000862
:100040001B0100081B0100081B0100081B01000820
:100050001B0100081B0100081B0100081B01000810
:100060001B0100081B0100081B0100089D0500087A
:100070001B0100081B0100081B0100081B010008F0
:100080001B0100081B0100081B0100081B010008E0
:100090001B0100081B0100081B0100081B010008D0
:1000A0001B0100081B0100081B0100081B010008C0
:1000B0001B0100081B0100081B0100081B010008B0
:1000C0001B0100081B0100081B0100081B010008A0
:1000D0001B0100081B0100081B0100081B01000890
:1000E0001B0100081B0100081B010008DFF80CD0F1
:1000F00000F05EF9004800471D3C0008A00B0020FE
:100100000648804706480047FEE7FEE7FEE7FEE7B1
:10011000FEE7FEE7FEE7FEE7FEE7FEE7ED2C000860
:10012000ED000008202A04DB203A21FA02F0002129
:10013000704721FA02F3D040C2F1200291400843F7
:1001400019467047D2B201E000F8012B491EFBD2DC
:1001500070470022F6E710B513460A4604461946D2
:10016000FFF7F0FF204610BDF0B480EA0102D40F83
:100170004200B2EB410F02D20246084611464A0045
:1001800042D0C30DDDB2C1F3C752AD1A202D35DA0E
:10019000C1F3160141F4000204B15242C5F1200638
:1001A00002FA06F12A411044B3EBD05F23D0C4B168
:1001B000012DA0EBC35009DCF0BC4FF0004202EA75
:1001C000C352DBB200F5000000F0C3B8400000F1FC
:1001D000807000EBC350A0F1807040EAD1704900FC
:1001E00009E0490841EAC071A0EBC35000F50000E6
:1001F000400800EBC350F0BC00F0A2B861420122FD
:1002000002EB4101001BF6E7F0BC704781F00041B2
:10021000AAE780F00040A7E780EA010210B502F0EB
:100220000043400022D04A001FD0010E01EB1261B2
:10023000C0F35600C2F3560240F4000042F400023C
:10024000A0FB022000047F39140400D0401C50EAB7
:10025000124001D44000491EC2B20C0604EBD0107B
:10026000401C4008802A02D003E0002010BD20F08E
:100270000100002900DA0020184310BD30B480EAE4
:10028000010202F0004530F0004221F0004013D09E
:1002900090B1C30DD40DC2F31601C0F31600E41AD9
:1002A00041F4000140F400027D34914201D3641C0A
:1002B00000E04900002C02DA30BC002070474FF407
:1002C00000000023914201D3891A034340084FEAFA
:1002D0004101F7D151B1914202D14FF0004105E007
:1002E00002D24FF0010101E06FF0010103EBC450B5
:1002F000284430BC00F024B896230022114600F0B8
:1003000028B820F00040C10DC0F3160040F40000F2
:100310007F2901DA00207047962903DCC1F196019C
:10032000C84070479639884070470000002801DBBC
:10033000C0F10040002901DBC1F10041814270475A
:100340000029A8BF7047401C490008BF20F00100E9
:10035000704710B4B0FA80FC00FA0CF050EA0104C7
:1003600004BF10BC704749B1CCF1200421FA04F459
:1003700011FA0CF118BF012121430843A3EB0C0132
:10038000CB1D4FEA00614FEA102042BF002010BC95
:10039000704700EBC35010440029A4BF10BC704745
:1003A000401C490008BF20F0010010BC704700004D
:1003B000064C074D06E0E06840F0010394E80700B2
:1003C00098471034AC42F6D3FFF794FEE84000089B
:1003D0000841000870B5044600252068806800F0D8
:1003E0000100F0B12068806820F001002168886079
:1003F00000F0DAFF05460EE000F0D6FF401B0228B1
:1004000009D9A06A40F01000A062E06A40F0010043
:10041000E062012070BD2068806800F001000028C3
:10042000EAD10020F6E770B505466C6AA06A00F0D4
:100430005000E0B9A06A40F40070A06220688068B3
:1004400000F46020B0F5602F0DD1E06858B9A06AC3
:1004500020F48070A062A06A00F4805018B9A06AED
:1004600040F00100A062204600F02CFA03E0206A70
:10047000016B2846884770BD70B505466C6AA06A56
:1004800040F04000A062E06A40F00400E0622046D4
:1004900000F01AFA70BD70B50446656A284600F08F
:1004A00012FA70BD38B5044600250020009020687F
:1004B000806800F0010080BB2068806840F0010087
:1004C00021688860164800681649B0FBF1F000907A
:1004D00002E00098401E009000980028F9D100F03A
:1004E00063FF054613E000F05FFF401B02280ED9B2
:1004F000A06A40F01000A062E06A40F00100E062F3
:1005000000BF002084F8240000BF012038BD20680F
:10051000806800F001000028E5D00020F6E7000028
:100520000000002040420F0010B5044600231A4688
:100530001946042002F0B2FD642003F0FCF903F038
:1005400007FA0348606103482061002010BD0000E5
:100550009D3000085139000800BFFEE770B5024623
:100560000B4600200024002100BF09E0C5B2565C04
:1005700085EA0604044D35F8145085EA1020491C1C
:100580009942F3DB70BD0000E63E000801460248D8
:1005900048600020704700000539000810B5024887
:1005A00000F04EFB10BD00009800002030B590F820
:1005B00040500124AC40C56B6C60046863604468C3
:1005C000102C04D10468A2600468E16003E00468B0
:1005D000A1600468E26030BD704770470021074A9F
:1005E000D1610749096941F00401054A11611146C9
:1005F000096941F040011161704700004800002086
:10060000002002400021074AD1610749096941F0F1
:100610000201054A116111464861096941F0400132
:100620001161704748000020002002400022054B65
:10063000DA61054A126942F00102034B1A61018036
:1006400070470000480000200020024000201E49A2
:10065000C96801F0100139B11C49C96941F00201B2
:100660001A4AD16140F010001749C96801F004012D
:1006700039B11649C96941F00101144AD16140F00C
:1006800004001149C96901F0010169B10F49C96943
:1006900041F004010D4AD16100BF0B49C96921F045
:1006A0000101094AD16100BF00BF40F20111884237
:1006B00006D10549C96921F00101034AD16101E070
:1006C0000149C86000BF7047002002404800002078
:1006D00070B5044600F068FE054609E0601C38B1BC
:1006E00024B100F061FE401BA04201D9032070BD7F
:1006F0001248C06800F001000028EFD10F48C06820
:1007000000F0200020B100BF20200C49C86000BFCD
:100710000A48C06800F0100048B90848C06900F0F5
:10072000010020B90548C06800F0040018B1FFF7C7
:100730008DFF0120DBE70020D9E700000020024008
:1007400010B5044600F07CFC03482060034860605C
:1007500003486061002010BD1D3A0008F13900080F
:100760007139000838B5024600230020009000BF10
:1007700092F82400012801D1022038BD012082F81E
:10078000240000BF4868072812D21068406B0C791B
:10079000641E04EB84051F24AC40A0430D796D1E3C
:1007A00005EB85050C68AC4020431468606327E0C6
:1007B00048680D2812D21068006B0C79E41F04EB16
:1007C00084051F24AC40A0430D79ED1F05EB850582
:1007D0000C68AC4020431468206311E01068C06AC4
:1007E0000C790D3C04EB84051F24AC40A0430D792B
:1007F0000D3D05EB85050C68AC4020431468E062B4
:1008000008680A2812D31068C0680C780A3C04EB08
:1008100044050724AC40A0430D780A3D05EB45058F
:100820008C68AC4020431468E0600FE010680069F9
:100830000C7804EB44050724AC40A0430D7805EB8D
:1008400045058C68AC402043146820610868102876
:1008500002D00868112827D1174C1068A0421ED179
:100860001068806800F40000F0B91068806840F4F7
:1008700000001468A0600868102815D10F480068AF
:100880000F4CB0FBF4F000EB80004000009002E061
:100890000098401E009000980028F9D104E0906A6A
:1008A00040F020009062012300BF002082F8240065
:1008B00000BF184661E7000000240140000000204E
:1008C00040420F0070477047704700002DE9F0412B
:1008D0000446002700250026A84614B90120BDE8DB
:1008E000F081A06810B1606900B100BFA06A30B9A2
:1008F0000020E06284F82400204600F089F82046B9
:10090000FFF768FD0746A06A00F01000002873D1C9
:10091000002F71D1A06A20F4885040F00200A0623C
:10092000E16960680843E16840EA41000643A06865
:10093000B0F5807F02D0A068012802D14FF480700A
:1009400000E0002005436069012811D1E06838B952
:10095000A069401E4FF4006141EA4030054307E0C2
:10096000A06A40F02000A062E06A40F00100E0626E
:100970002068406820F46940284321684860206866
:10098000806821490840304321688860A068B0F53C
:10099000807F02D0A068012802D14FF4807000E06F
:1009A0000020B0F5807F03D1208A401E4FEA005816
:1009B0002068C06A20F4700040EA08002168C8621C
:1009C0002068806811490840B04208D10020E062E8
:1009D000A06A20F0020040F00100A06211E0A06ACD
:1009E00020F0020040F01000A062E06A40F0010038
:1009F000E062012705E0FFE7A06A40F01000A06276
:100A0000012738466BE70000FDF7E1FFFE0E1FFFF0
:100A100010B586B004460020029003900490059023
:100A20002249206888423ED100BF2148806940F4B5
:100A300000701F4988610846806900F400700190C9
:100A400000BF00BF00BF0846806940F00400886115
:100A50000846806900F00400019000BF00BF1F201D
:100A600002900320039002A9124800F001FB1248F3
:100A700012490860002048600021104881608021F0
:100A8000C160890001618900416120218161090201
:100A9000C16100F0A3F908B1FFF79FFD00BF07484F
:100AA0002062446200BF06B010BD00000024014077
:100AB0000010024000080140080002409800002099
:100AC0002DE9F04104460D46164600275749206897
:100AD000884203D056492068884205D15348001DFA
:100AE000006800F4702000E0002000287ED100BFE4
:100AF00094F82400012802D10220BDE8F0810120F1
:100B000084F8240000BF2046FFF7CCFC0746002FE6
:100B10006DD1A06A40F60161884340F48070A06204
:100B200043492068884209D14048001D006800F40C
:100B3000702008B9012002E0002000E0012078B117
:100B4000A06A20F48010A0622068406800F48060F1
:100B500000B3A06A20F4005040F48050A06219E075
:100B6000A06A40F48010A06230492068884203D017
:100B70002F492068884205D12C48001D006800F4E8
:100B8000806000E0002028B1A06A20F4005040F40A
:100B90008050A062A06A00F4805020B1E06A20F08A
:100BA0000600E06201E00020E06200BF002084F85F
:100BB000240000BF1F48216A88621F48216AC8625A
:100BC0001E48216A08636FF00200216808602068EF
:100BD000806840F4807021688860226802F14C01CE
:100BE00033462A46206A00F02DF901E01AE014E0AD
:100BF0002068806800F46020B0F5602F06D120687E
:100C0000806840F4A000216888600CE0206880685B
:100C100040F480102168886005E000BF002084F85F
:100C2000240000E00127384667E700000024014067
:100C300000280140270400089704000879040008F0
:100C400070B50446E06B05682068066894F84010AB
:100C5000042088402840002846D006F004000028E0
:100C600042D02068006800F0200028B920680068A1
:100C700020F004002168086057492068884201D1AB
:100C8000042027E0544914312068884201D14020D3
:100C900020E0514928312068884201D1001519E02F
:100CA0004D493C312068884202D14FF4804011E028
:100CB000494950312068884202D14FF4802009E030
:100CC000454964312068884202D14FF4800001E038
:100CD0004FF08060404908394860E06A00287AD0C7
:100CE0002046E16A884776E094F840100220884068
:100CF0002840A0B306F0020088B32068006800F026
:100D0000200040B92068006820F00A0021680860CF
:100D1000012084F8210030492068884201D1022056
:100D200028E02D4914312068884201D1202021E09B
:100D3000294928312068884201D140151AE0264906
:100D40003C312068884202D14FF4005012E0224921
:100D500050312068884203D14FF400300AE017E098
:100D60001D4964312068884202D14FF4001001E02F
:100D70004FF0007018490839486000BF002084F81F
:100D8000200000BFA06A30B32046A16A884722E055
:100D900094F84010082088402840E0B106F0080090
:100DA000C8B12068006820F00E002168086094F83F
:100DB000401001208840E16B48600120A06384F866
:100DC000210000BF002084F8200000BF206B10B17C
:100DD0002046216B884770BD080002400146002272
:100DE00009B901207047164B0868C01A1423B0FBDC
:100DF000F3F08000086412480838C863022081F8C4
:100E000021000868026843F6F0708243D1E90103CB
:100E10001843CB6818430B6918434B6918438B6917
:100E20001843CB69184302430868026000208863B6
:100E3000012081F82100002081F8200000BFD1E7C7
:100E4000080002402DE9F04104460D4616461F46B3
:100E50004FF0000800BF94F82000012802D10220C2
:100E6000BDE8F081012084F8200000BF94F8210043
:100E700001282CD1022084F821000020A0632068E2
:100E8000006820F00100216808603B463246294690
:100E90002046FFF78BFBE06A30B12068006840F025
:100EA0000E00216808600BE02068006820F0040054
:100EB000216808602068006840F00A002168086026
:100EC0002068006840F001002168086006E000BF6B
:100ED000002084F8200000BF4FF002084046BFE722
:100EE0002DE9F04104460E460127002500BF2648A3
:100EF000007E012802D10220BDE8F08101202249B4
:100F0000087600BF2068022813D14CF25030FFF75A
:100F1000DFFB90BB0120FFF761FB4CF25030FFF785
:100F2000D7FB07461948006920F0040017490861FB
:100F300023E04CF25030FFF7CBFBF0B94FF0FF301D
:100F40003060A56812E02846FFF75CFB4CF2503099
:100F5000FFF7BEFB07460D48006920F002000B4971
:100F600008610FB1356007E005F58065D4E902102E
:100F700001EB8020A842E6D800BF00BF0020024954
:100F8000087600BF3846B7E748000020002002403E
:100F90002DE9FE4F05468B4617469846012600244C
:100FA0000020029000BF2448007E012802D10220C8
:100FB000BDE8FE8F01202049087600BF4CF250307A
:100FC000FFF786FB064686BB012D02D10120029069
:100FD00006E0022D02D10220029001E004200290DE
:100FE00000241EE02201B946C24648465146FFF79A
:100FF00099F880B20190022000FB04B000900199A2
:10100000FFF714FB4CF25030FFF762FB06460B482B
:10101000006920F001000949086106B104E0601C84
:10102000C4B202988442DDDB00BF00BF0020024949
:10103000087600BF3046BBE7480000200020024091
:1010400000200849096901F0800151B10649054AAB
:101050005160064951601146096901F0800101B1F2
:10106000012070470020024023016745AB89EFCD86
:101070002DE9F84703460024002000258446002778
:1010800000226EE14FF0010808FA02F4D1F8008066
:1010900008EA0400A0427DD1DFF8D0A2D1F8048094
:1010A000A8EB0A09D0453AD014DCB8F1030F50D0B0
:1010B00009DCB8F1000F31D0B8F1010F1CD0B8F144
:1010C000020F49D120E0B8F1110F18D0B8F1120F7A
:1010D00042D11EE0B9F5881F25D006DCB9F5803F66
:1010E00020D0B9F5801F37D11AE0B9F5001F18D00C
:1010F000B9F5041F30D117E0D1F80CC02DE0D1F8BC
:101100000C8008F1040C28E0D1F80C8008F1080CE0
:1011100023E0D1F80C8008F10C0C1EE000BF00BFEA
:1011200000BF00BF00BF00BFD1F80880B8F1000FBA
:1011300002D14FF0040C0BE0D1F80880B8F1010F98
:1011400003D14FF0080C1C6102E04FF0080C5C6109
:1011500003E04FF0000C00E000BF00BFFF2801D803
:10116000984601E003F104084646FF2802D84FEAFA
:10117000820803E0A2F108084FEA88084746D6F83B
:1011800000804FF00F0909FA07F928EA09080CFA5C
:1011900007F900E088E048EA0908C6F80080D1F8BD
:1011A000048008F08058B8F1805F7DD100BFDFF87F
:1011B000C081D8F8188048F00108DFF8B491C9F868
:1011C0001880C846D8F8188008F00108CDF80080CB
:1011D00000BF00BF4FEAB9384FEA920958F82950CA
:1011E0004FEA82784FEA18794FF00F0808FA09F8A9
:1011F00025EA0805DFF87C81434502D14FF000085D
:1012000016E0DFF87481434502D14FF001080FE08A
:10121000DFF86881434502D14FF0020808E0DFF8AB
:101220006081434502D14FF0030801E04FF004080C
:101230004FEA82794FEA197908FA09F848EA050570
:10124000DFF840814FEA920948F82950D1F804802C
:1012500008F48038B8F5803F0AD1DFF82C81D8F83F
:10126000008048EA0008DFF82091C9F8008009E012
:10127000DFF81481D8F8008028EA0008DFF8089128
:10128000C9F80080D1F8048008F40038B8F5003FB0
:1012900010D1DFF8F48008F10408D8F8008048EA9B
:1012A0000008DFF8E49000E05AE009F10409C9F809
:1012B00000800DE0DFF8D08008F10408D8F8008045
:1012C00028EA0008DFF8C09009F10409C9F8008095
:1012D000D1F8048008F48018B8F5801F0ED1DFF82B
:1012E000A88008F10808D8F8008048EA0008DFF86C
:1012F000989009F10809C9F800800DE0DFF88880AE
:1013000008F10808D8F8008028EA0008DFF878908B
:1013100009F10809C9F80080D1F8048008F4001820
:10132000B8F5001F0ED1DFF8608008F10C08D8F87E
:10133000008048EA0008DFF8509009F10C09C9F86C
:1013400000800DE0DFF8408008F10C08D8F800803C
:1013500028EA0008DFF8309009F10C09C9F800808C
:10136000521C102AFFF48EAEBDE8F8870000111061
:101370000010024000080140000C01400010014034
:101380000014014008000140000401400246936837
:101390000B400BB1012000E0002070470AB1016151
:1013A00001E00B04036170470148006870470000CA
:1013B000040000200549096801600449091D096805
:1013C000416002490831096881607047E8F7FF1FF2
:1013D00003480068034909780844014908607047D8
:1013E000040000200C00002010B50848006840F000
:1013F000100006490860032000F0A6F8002000F065
:1014000007F800F02BF8002010BD0000002002407B
:1014100070B504460E4800784FF47A71B1FBF0F0D5
:101420000C490968B1FBF0F5284600F024FE08B12C
:10143000012070BD102C07D200222146501E00F062
:1014400044F80548046001E00120F2E70020F0E7DD
:101450000C000020000000200800002008B500BF9C
:101460001148806940F001000F4988610846806991
:1014700000F00100009000BF00BF00BF0846C06937
:1014800040F08050C8610846C06900F0805000906C
:1014900000BF00BF00BF0549486820F0E06040F091
:1014A0000070486000BF08BD00100240000001400D
:1014B00000BF00F01F02012191404209920002F199
:1014C000E022C2F8001100BF70472DE9F05F8046AE
:1014D0000D461646002701F0CFFA074639462A4640
:1014E000334601F00700C0F1070ABAF1040F02D930
:1014F0004FF0040A01E0C0F1070AD14600F1040AE6
:10150000BAF1070F02D24FF0000A01E0A0F1030A7E
:10151000D4464FF0010A0AFA09FAAAF1010A0AEAC6
:10152000020A0AFA0CFA4FF0010B0BFA0CFBABF1B2
:10153000010B0BEA030B4AEA0B042146404601F07B
:10154000A3FABDE8F09F000000BF00F00702064BC1
:1015500019684FF6FF031940044B0B4343EA02217D
:10156000014B196000BF70470CED00E00000FA0568
:10157000F8B5044600260025207800F00100002878
:101580006BD000274348C06900F0805070B900BF9D
:101590004048C06940F080503E49C8610846C06973
:1015A00000F08050009000BF00BF01273A4800685B
:1015B00000F48070B0B93848006840F48070364953
:1015C0000860FFF7F1FE064606E0FFF7EDFE801B20
:1015D000642801D90320F8BD2F48006800F480700A
:1015E0000028F2D02B48006A00F440752DB3A08883
:1015F00000F44070A84220D02648006A20F44075CC
:10160000012026490860002008602248056205F094
:10161000010090B1FFF7C8FE064608E0FFF7C4FEE0
:10162000801B41F28831884201D90320D3E7194851
:10163000006A00F002000028F0D01648006A20F48A
:1016400040706168084313490862012F04D10846BD
:10165000C06920F08050C86100BF207800F002000F
:10166000022807D10B48406820F44040A168084395
:1016700008494860207800F01000102807D105487C
:10168000406820F48000E168084302494860002077
:10169000A1E70000001002400070004040044242F8
:1016A00070B504460D4600266D48006800F007003E
:1016B000A8420ED26A48006820F007002843684913
:1016C00008600846006800F00700A84201D0012029
:1016D00070BD207800F0020002281DD1207800F0B3
:1016E0000400042805D15F48406840F4E0605D498B
:1016F0004860207800F00800082805D15948406863
:1017000040F46050574948605648406820F0F00067
:10171000A168084353494860207800F00100002880
:101720005DD06068012806D14E48006800F40030A2
:1017300090B90120CCE76068022806D149480068CA
:1017400000F0007040B90120C2E74648006800F090
:10175000020008B90120BBE74248406820F00300BE
:10176000616808433F494860FFF71EFE064660680F
:10177000012810D108E0FFF717FE801B41F28831E5
:10178000884201D90320A3E73648406800F00C00E6
:101790000428F0D123E06068022810D108E0FFF7A8
:1017A00003FE801B41F28831884201D903208FE774
:1017B0002C48406800F00C000828F0D10FE008E049
:1017C000FFF7F2FD801B41F28831884201D90320E6
:1017D0007EE72448406800F00C000028F0D1204843
:1017E000006800F00700A8420ED91D48006820F0EC
:1017F000070028431A4908600846006800F00700FF
:10180000A84201D0012063E7207800F004000428FA
:1018100007D11448406820F4E060E16808431149AA
:101820004860207800F00800082808D10D4840687A
:1018300020F46050216940EAC1000A49486000F084
:1018400017F808494968C1F30311074A515CC840B9
:10185000064908600020FFF7DBFD002038E70000A4
:101860000020024000100240CE3E00080000002090
:10187000F0B585B00FF26C0C9CE8E01001A8A0E870
:10188000E0101CA52D6800950021002200230024F3
:101890000020194D696801F00C05F5B1042D02D046
:1018A000082D19D101E0154819E001ADC1F38346B7
:1018B000AC5D01F4803555B10F4D6D68C5F3404501
:1018C0001DF805200D4D6543B5FBF2F302E00C4D0C
:1018D00004FB05F3184602E000BF0A4800BF00BF42
:1018E00005B0F0BD02030405060708090A0B0C0D3C
:1018F0000E0F10100102000000100240001BB70084
:1019000000093D0000127A00F8B504460025207851
:1019100000F00100002878D0F848406800F00C0082
:1019200004280CD0F548406800F00C00082811D1BC
:10193000F248406800F48030B0F5803F0AD1EF48AB
:10194000006800F4003000285FD0606800285CD197
:101950000120F8BD00BF6068B0F5803F06D1E748C0
:10196000006840F48030E549086028E0606858B9B4
:10197000E248006820F48030E049086008460068CA
:1019800020F4802008601AE06068B0F5A02F0BD129
:10199000DA48006840F48020D849086008460068AA
:1019A00040F4803008600AE0D448006820F48030B9
:1019B000D24908600846006820F48020086000BF13
:1019C000606888B1FFF7F0FC054606E0FFF7ECFC25
:1019D000401B642801D90320BBE7C848006800F415
:1019E00000300028F2D010E0FFF7DEFC054606E0EC
:1019F000FFF7DAFC401B642801D90320A9E7BF48A0
:101A0000006800F400300028F2D1207800F00200D5
:101A1000022857D1B948406800F00C0050B1B748CF
:101A2000406800F00C00082818D1B448406800F461
:101A3000803098B9B148006800F0020020B12069F8
:101A4000012801D0012084E7AC48006820F0F800AC
:101A5000616940EAC100A949086033E02069E8B142
:101A60000120A7490860FFF79FFC054606E0FFF745
:101A70009BFC401B022801D903206AE79F480068AD
:101A800000F002000028F2D09C48006820F0F80026
:101A9000616940EAC1009949086013E00020984953
:101AA0000860FFF781FC054606E0FFF77DFC401B60
:101AB000022801D903204CE79048006800F002009A
:101AC0000028F2D1207800F0080008282DD1A06964
:101AD000B8B101208B490860FFF766FC054606E0B7
:101AE000FFF762FC401B022801D9032031E783483D
:101AF000406A00F002000028F2D0012000F0DAFF76
:101B000013E000207F490860FFF74EFC054606E021
:101B1000FFF74AFC401B022801D9032019E7774848
:101B2000406A00F002000028F2D1207800F00400A2
:101B3000042873D100267148C06900F0805070B944
:101B400000BF6E48C06940F080506C49C8610846CB
:101B5000C06900F08050009000BF00BF01266A48B5
:101B6000006800F48070B0B96748006840F4807085
:101B700065490860FFF718FC054606E0FFF714FC0E
:101B8000401B642801D90320E3E65F48006800F4A5
:101B900080700028F2D000BFE068012806D15748C5
:101BA000006A40F001005549086227E0E06858B932
:101BB0005248006A20F00100504908620846006A55
:101BC00020F00400086219E0E06805280BD14B48BA
:101BD000006A40F00400494908620846006A40F083
:101BE000010008620AE04548006A20F0010043490C
:101BF00008620846006A20F00400086200BFE0683E
:101C0000A0B1FFF7D1FB054609E0FFF7CDFB401B74
:101C100041F28831884202D903209AE622E037480F
:101C2000006A00F002000028EFD012E0FFF7BCFBD2
:101C3000054608E0FFF7B8FB401B41F288318842B7
:101C400001D9032085E62D48006A00F00200002833
:101C5000F0D1012E05D12948C06920F080502749D4
:101C6000C86100BFE069C8B32448406800F00C00B8
:101C7000082860D0E069022848D100202049086681
:101C8000FFF792FB054606E0FFF78EFB401B02289C
:101C900001D903205DE61948006800F000700028B3
:101CA000F2D1206AB0F5803F07D11448406820F493
:101CB0000030A168084311494860D4E9080108438D
:101CC0000E49496821F4741108430C494860012009
:101CD0000B490866FFF768FB054607E02DE0FFF7B4
:101CE00063FB401B022801D9032032E60348006849
:101CF00000F000700028F2D01FE000000010024049
:101D000000004242800442420070004000200C4922
:101D10000866FFF749FB054606E0FFF745FB401B59
:101D2000022801D9032014E60648006800F000707C
:101D30000028F2D101E001200BE6002009E60000B6
:101D4000000042420010024010B504460CB90120C8
:101D500010BD0021A16294F8510010B9204600F096
:101D600037F8022084F851002068006820F0400015
:101D700021680860D4E901010843E168084321694A
:101D8000084361690843218B01F400710843E1694C
:101D90000843216A0843A16A0843216808600421B6
:101DA000A06901EA1040616A08432168486021681F
:101DB000E06A08612068C06920F400602168C86199
:101DC00000206065012084F851000020C0E7000079
:101DD00010B586B004460020029003900490059050
:101DE0001A49206888422FD100BF1948C06940F4C1
:101DF00080401749C8610846C06900F480400190DE
:101E000000BF00BF00BF0846806940F0080088613D
:101E10000846806900F00800019000BF00BF4FF441
:101E200020400290022003900320059002A9094857
:101E3000FFF71EF94FF480400290002003900490B9
:101E400002A90448FFF714F906B010BD003800409D
:101E500000100240000C01402DE9FE4F04460D46E3
:101E600016461F46DDF830804FF0000A0020029031
:101E700081464FF0010B019000BF94F850000128FB
:101E800002D10220BDE8FE8F012084F8500000BF7F
:101E9000FFF78AFA814694F851A060680290BAF17F
:101EA000010F0BD00298B0F5827F04D1A06810B961
:101EB000BAF1040F02D002200190D2E00DB106B1B8
:101EC00017B901200190CCE094F85100012802D10B
:101ED000052084F8510000206065A663E787A78786
:101EE0002563E786A786206460642068006800F0A8
:101EF0004000402805D02068006840F0400021687C
:101F00000860E068B0F5006F43D1606810B1E08E02
:101F1000012806D128882168C860AD1CE08E401ECB
:101F2000E0862FE0BBF1000F10D0E08E70B120688A
:101F3000806800F00200022808D128882168C86063
:101F4000AD1CE08E401EE0864FF0000BE08F68B1C4
:101F50002068806800F0010040B12068C0683080CF
:101F6000B61CE08F401EE0874FF0010B08F1010026
:101F700040B1FFF719FAA0EB0900404502D3032056
:101F800001906EE0E08E0028CCD1E08F0028C9D10E
:101F900042E0606810B1E08E012806D128782168FF
:101FA00008736D1CE08E401EE0862FE0BBF1000F31
:101FB00010D0E08E70B12068806800F00200022826
:101FC00008D115F8010B21680873E08E401EE086E9
:101FD0004FF0000BE08F68B12068806800F00100CE
:101FE00040B12068C06806F8010BE08F401EE08712
:101FF0004FF0010B08F1010040B1FFF7D5F9A0EB5C
:102000000900404502D3032001902AE0E08E002819
:10201000CCD1E08F0028C9D14346012202212046BD
:10202000CDF8009000F0C6FD10B10320019018E03B
:102030004A464146204600F0A9FD20B1012001900A
:10204000202060650DE0A06850B900BF002000901E
:102050002068C068009020688068009000BF00BFC2
:1020600000BF012084F8510000BF002084F8500018
:1020700000BF019806E770B504462546681EB0F11A
:10208000807F01D301200FE0681E4FF0E0214861FE
:102090000F214FF0FF3000F0F7FC00204FF0E0215F
:1020A000886107200861002070BD024600BF92F8D9
:1020B0003C00012801D102207047012082F83C0039
:1020C00000BF022082F83D001068406820F07000D8
:1020D00013685860106840680B68184313685860AC
:1020E0001068806820F0800013689860106880682D
:1020F0004B68184313689860012082F83D0000BFC8
:10210000002082F83C0000BF00BFD5E710B586B0C4
:102110000446002002900390049005902149206815
:10212000884221D100BF2048806940F008001E4944
:1021300088610846806900F00800019000BF00BF78
:102140001020029002200390059002A91748FEF784
:102150008FFF00BF1649486820F4406040F0E060FF
:1021600040F4006048601BE012492068884217D1A3
:1021700000BF0D48806940F008000B49886108469F
:10218000806900F00800019000BF00BF4FF440706C
:10219000029002200390059002A90448FEF768FF10
:1021A00006B010BD0004004000100240000C0140C9
:1021B000000001400008004070B504460D46164678
:1021C00000BF94F83C00012801D1022070BD01201D
:1021D00084F83C0000BF022084F83D0036B1042E94
:1021E0001BD0082E31D00C2E5ED145E02946206848
:1021F00000F0F0FD2068806940F0080021688861E7
:102200002068806920F00400216888612068806966
:10221000296908432168886147E02946206800F061
:102220000BFE2068806940F40060216888612068A6
:10223000806920F48060216888612068806929694C
:1022400040EA0120216888612FE02946206800F0DB
:102250002BFE2068C06940F008002168C861206832
:10226000C06920F004002168C8612068C06929693C
:1022700008432168C86118E02946206800F04AFE3A
:102280002068C06940F400602168C8612068C069A6
:1022900020F480602168C8612068C069296940EA2B
:1022A00001202168C86100E000BF00BF012084F860
:1022B0003D0000BF002084F83C0000BF00BF85E760
:1022C00010B504460CB9012010BD94F83D0028B9A2
:1022D000002084F83C00204600F00CF8022084F82E
:1022E0003D00211D206800F02DFD012084F83D00F7
:1022F0000020E9E708B5124A016891420DD100BFFC
:102300001049C96941F002010E4AD1611146C969FB
:1023100001F00201009100BF11E00B4A01689142F7
:102320000DD100BF0749C96941F00401054AD161D7
:102330001146C96901F00401009100BF00BF08BD4A
:1023400000040040001002400008004030B5044680
:102350000D4601222946206800F02EFD0A4920681A
:10236000884201D1012000E0002028B12068406CA3
:1023700040F40040216848642068006840F0010093
:1023800021680860002030BD002C014000BFFEE73E
:102390000EB500200090019002902B482B49086058
:1023A00081152A4881600121C160002141614FF4FB
:1023B0006021C16100202549486005212348016151
:1023C000FEF784FA08B1FEF708F90020009001201A
:1023D00001900020029069461C48FEF7C3F908B13D
:1023E000FEF7FBF801200090022001906946174893
:1023F000FEF7B8F908B1FEF7F0F8022000900320CC
:10240000019069461148FEF7ADF908B1FEF7E5F80D
:10241000032000900420019069460C48FEF7A2F9C1
:1024200008B1FEF7DAF80420009005200190694613
:102430000648FEF797F908B1FEF7CFF86422044981
:102440000248FEF73DFB0EBD00240140680000205D
:10245000DC02002008B500BF0A48406940F00100D6
:10246000084948610846406900F00100009000BF3B
:1024700000BF002211460B20FFF727F80B20FFF7C3
:1024800017F808BD0010024000B585B0002001908B
:1024900002900390049000BF3448806940F010001F
:1024A000324988610846806900F01000009000BF42
:1024B00000BF00BF0846806940F0200088610846E0
:1024C000806900F02000009000BF00BF00BF0846F8
:1024D000806940F0040088610846806900F00400CB
:1024E000009000BF00BF00BF0846806940F00800B0
:1024F00088610846806900F00800009000BF00BFB6
:1025000001224FF4C0511A48FEF748FF4FF46040D3
:102510000190002002900120039001A91548FEF7C8
:10252000A7FD49F6E0700190002002900120039081
:1025300001A91148FEF79CFD40F2EB4001900020FC
:1025400002900120039001A90948FEF791FD4FF484
:10255000C0500190012002900020039003200490BD
:1025600001A90348FEF784FD05B000BD001002403C
:10257000000C0140001001400008014010B50E4859
:102580000E4908604FF48270486000210B4881605A
:10259000C160016141614FF4007181612021C1611D
:1025A00000210162416281620A21C162FFF7CCFB16
:1025B00008B1FEF712F810BD00380040DC00002022
:1025C00000B589B00020079008901C216846FDF7EF
:1025D000C0FD1B481B49086048204860002119487D
:1025E00081601421C1600021016180218161FFF7B8
:1025F00067FE08B1FDF7F1FF00200790089007A9DA
:102600001048FFF752FD08B1FDF7E7FF602000908A
:1026100015200190022002900020049000226946BB
:102620000848FFF7C9FD08B1FDF7D7FF00210548AD
:10263000FFF78CFE0348FFF769FD09B000BD0000FD
:10264000000400403401002000B589B0002007904C
:1026500008901C216846FDF77CFD2248224908604D
:1026600048F6A040486000211F4881604FF4FA619D
:10267000C1600021016180218161FFF721FE08B165
:10268000FDF7ABFF00200790089007A91648FFF759
:102690000CFD08B1FDF7A1FF602000904FF47A70A7
:1026A0000190002002900490082269460E48FFF72E
:1026B00083FD08B1FDF791FF0C2269460A48FFF738
:1026C0007BFD08B1FDF789FF08210748FFF73EFEB3
:1026D0000C210548FFF73AFE0348FFF717FD09B044
:1026E00000BD0000000800407401002000BFFEE7AC
:1026F0007047000070B50446002504F0700400F037
:1027000053F8054600224FF480510948FEF746FE73
:10271000272001F0AFF944EA050001F0ABF90122EE
:1027200011030348FEF73AFE00F03EF870BD0000CA
:10273000000C01402DE9F04104460E4617460022E8
:102740004FF480510B48FEF729FE204601F092F924
:10275000002505E0FF2001F08DF97055681CC5B219
:10276000BD42F7DB012211030248FEF717FEBDE868
:10277000F0810000000C014070B5044600224FF4C7
:1027800080510848FEF70AFE204601F073F9FF2049
:1027900001F070F90546012211030248FEF7FEFD23
:1027A000284670BD000C014010B500224FF4805146
:1027B0000648FEF7F3FD072001F05CF9044601220C
:1027C00011030248FEF7EAFD204610BD000C01404F
:1027D0002DE9F04104460F460025002600224FF463
:1027E00080511A48FEF7DAFDE22001F043F9012298
:1027F00011031648FEF7D2FD00BF144808300068E8
:1028000000F4806008B1012000E000200028F4D12D
:102810000720FFF7B1FF05462946072000F0DCF846
:1028200005F0400078B16020FFF7A6FF064632466B
:1028300021466120FFF77EFFFF21E22000F0CCF867
:102840003046BDE8F0810020FBE70000000C0140AD
:1028500070B504460E461546052D01DD052000E045
:1028600028460546052C01DD052000E020460446EB
:1028700004F10A01C8B22A46314600F08BF870BD57
:1028800070B5054600240620FFF776FF044624F0C5
:10289000280415B944F0200408E0012D02D124F0E9
:1028A000280403E0022D01D144F00804214606204B
:1028B00000F092F870BD70B505460C46052C01DDA0
:1028C000052000E02046044622462946102000F05C
:1028D00061F870BD2DE9F04705460E46174698464B
:1028E0000024A14600224FF480512948FEF756FDEE
:1028F000E12001F0BFF8012211032548FEF74EFD4B
:1029000000224FF400612248FEF748FD3246294676
:10291000A02000F03FF80122D1021D48FEF73EFD45
:1029200011E0012001F0D2FA4846411C1FFA81F95A
:10293000B0F5FA7F07D14146384600F0CFF80020C5
:1029400000F010F90AE012480830006800F48060D6
:1029500008B1012000E000200028E2D100BF0720DC
:10296000FFF70AFF04462146072000F035F804F07F
:10297000100030B1FF21E12000F02EF81020BDE85A
:10298000F08704F0200008B12020F8E7FF20F6E7E8
:10299000000C01402DE9F04105460E461746002285
:1029A0004FF480510B48FEF7F9FC45F0200001F090
:1029B00061F8002404E0305D01F05CF8601CC4B2F2
:1029C000BC42F8DB012211030248FEF7E7FCBDE838
:1029D000F0810000000C014070B504460D46002255
:1029E0004FF480510748FEF7D9FC44F0200001F075
:1029F00041F8284601F03EF8012211030148FEF794
:102A0000CDFC70BD000C01407FB519A103C9CDE913
:102A10000201002000900190002527E0052202A974
:102A20001020FFF7B7FF052269461020FFF782FE4E
:102A3000002408E002A8005D1DF80410884200D0C0
:102A400003E0601CC4B2052CF4DB00BF052C02D1EE
:102A5000002004B070BD681CC5B2052D02DD4FF02A
:102A6000FF30F6E74FF4FA6001F030FAD6E70000E5
:102A7000A5A5A5A5A500000002480068C0F3022096
:102A8000704700000CED00E010B5002807DA0A07D7
:102A9000140E054A00F00F031B1FD45403E00A076D
:102AA000130E024A135410BD18ED00E000E400E0DC
:102AB0007047000008B508490968C9084FF47A72E0
:102AC000B1FBF2F14143009100BF00BF00994A1EE3
:102AD00000920029F9D108BD0000002070B504461D
:102AE0000D460122D1021E48FEF758FC7020FFF768
:102AF00001FE01211C20FFF76FFF07211D20FFF7BA
:102B00006BFF1C20FFF738FE1D20FFF735FE0A2162
:102B10000020FFF761FF01210846FFF75DFF01215B
:102B20000220FFF759FF03210846FFF755FFFF2159
:102B30000420FFF751FF29460520FFF74DFF26210E
:102B40000620FFF749FF05212046FFF7B4FE0522C6
:102B500021460020FFF77CFE0120FFF791FE70BDAB
:102B6000000C014070B5044600250020FFF704FE6C
:102B7000054614B925F0010503E0012C01D145F00B
:102B8000010529460020FFF727FF70BDF8B5044670
:102B90000D4616462B46002280212046009600F066
:102BA00009F828B1606D40F0200060650320F8BD91
:102BB0000020FCE72DE9F04104460E4617461D466D
:102BC000DDF818803FE0681CE0B32DB1FEF7ECFBA8
:102BD000A0EB0800A84236D32068406820F0E0004F
:102BE000216848606068B0F5827F0DD1A068B0F5BB
:102BF000004F03D0A068B0F5806F05D12068006851
:102C000020F0400021680860A06AB0F5005F0ED196
:102C100000BF206800684DF6FF7108402168086019
:102C20002068006840F400502168086000BF01205F
:102C300084F8510000BF002084F8500000BF03203A
:102C4000BDE8F081FFE7206880683040B04201D1E4
:102C5000012000E00020B842B5D10020F0E7704725
:102C600010B5FEF7B5FB10BD00B593B0282109A83B
:102C7000FDF76FFA142104A8FDF76BFA002000900D
:102C80000190029003900120099000040A90002016
:102C90000B9001200D9002201090C1031191C104EE
:102CA000129109A8FEF730FE08B1FDF796FC0F203F
:102CB000049002200590002006904FF48060079059
:102CC00000200890022104A8FEF7EAFC08B1FDF7F5
:102CD00084FC022000904FF4404002906846FEF7CA
:102CE00047FC08B1FDF779FC13B000BD114800683E
:102CF00040F001000F490860084640680E4908404E
:102D00000C494860084600680C49084009490860B9
:102D10000846006820F4802008600846406820F4D7
:102D2000FE0048604FF41F008860C8030449086033
:102D300070470000001002400000FFF8FFFFF6FEA1
:102D400008ED00E000220268184B984208D0B0F16C
:102D5000804F05D0164B984202D0164B984203D1B3
:102D600022F070024B681A43104B984208D0B0F121
:102D7000804F05D00E4B984202D00E4B984203D1A3
:102D800022F44072CB681A4322F080024B691A4346
:102D900002608B68C3620B688362044B984201D166
:102DA0000B6903630123436170470000002C01405D
:102DB000000400400008004030B50023012404FA5C
:102DC00001F3046A9C430462046A02FA01F52C438D
:102DD000046230BD30B5002400220023056A25F0CE
:102DE00001050562026A4368846924F0700424F0D6
:102DF00003040D682C4322F002028D682A430D4D16
:102E0000A84206D100BF22F00802CD682A4322F072
:102E10000402084DA84207D123F4807323F4007301
:102E20004D692B438D692B43436084614D68456335
:102E3000026230BD002C014030B500240022002386
:102E4000056A25F010050562026A4368846924F466
:102E5000E04424F440740D6844EA052422F0200282
:102E60008D6842EA05120F4DA84207D100BF22F03B
:102E70008002CD6842EA051222F04002094DA842C4
:102E800009D123F4806323F400634D6943EA850389
:102E90008D6943EA8503436084614D6885630262FE
:102EA00030BD0000002C014030B50024002200237A
:102EB000056A25F480750562026A4368C46924F0D6
:102EC000700424F003040D682C4322F400728D6812
:102ED00042EA05220E4DA84207D100BF22F400624B
:102EE000CD6842EA052222F48062094DA84209D148
:102EF00023F4805323F400534D6943EA05138D698D
:102F000043EA05134360C4614D68C563026230BD86
:102F1000002C014030B5002200230024056A25F46E
:102F200080550562036A4468C26922F4E04222F4D3
:102F300040720D6842EA052223F400538D6843EA8B
:102F40000533074DA84204D124F480444D6944EA76
:102F500085144460C2614D680564036230BD0000A1
:102F6000002C014000BFFEE702E008C8121F08C1A4
:102F7000002AFAD170477047002001E001C1121FFA
:102F8000002AFBD1704700002DE9F0478CB00646BF
:102F90000F469046002009900A900B90FF220A21CC
:102FA00006A8FDF7CFF8142101A8FDF7D2F83446A2
:102FB00000203FE0052190FBF1F201FB120109AA7C
:102FC00032F8111054F82020914209D2052190FBCB
:102FD000F1F201FB120109AA34F8203022F8113075
:102FE000052190FBF1F201FB120106AA32F8111043
:102FF00054F82020914209D9052190FBF1F201FB00
:10300000120106AA34F8203022F81130052190FB75
:10301000F1F201FB120101AA52F8211054F820200C
:103020001144052290FBF2F302FB130201AB43F8BB
:103030002210401C6428BDDB00200EE009A931F8F5
:10304000101006AA32F81020114401AA52F82020CC
:10305000511A01AA42F82010401C0528EEDBB8F1F5
:10306000050F04D24FF0FF300CB0BDE8F08700250B
:103070000EE001A951F82500FDF73EF98246064908
:10308000FDF7FCF88146FDF73CF947F825006D1C7B
:10309000052DEEDB0020E7E7000090412DE9F0412F
:1030A00004460D4616461F46052C2FD2DFE804F0D5
:1030B000030C151E260040F2EE224FF4487142F236
:1030C000283000F029F822E040F26C724FF4FA61E7
:1030D00048F6A04000F020F819E040F6D8624FF41E
:1030E0007A6148F6A04000F017F810E04FF47A72C9
:1030F000910048F6A04000F00FF808E04FF4C872C5
:10310000510042F2283000F007F800BF00BF00BFB6
:103110000020BDE8F081000010B50A4B1B6823F0C9
:103120000103084C2360074B283318601B1D1960EE
:10313000044B34331A6023461B6843F001032360B9
:1031400010BD0000000400402DE9F04788B005469E
:103150000020049005900690079000900190029046
:10316000039000243AE0824931F81400FDF7C4F8D6
:1031700007468049FDF782F806460499FCF7F4FFFC
:1031800004907B49C83131F81400FDF7B5F80746C3
:103190007849FDF773F806460599FCF7E5FF0590B9
:1031A000754931F81400FDF7A7F807467149FDF796
:1031B00065F806460699FCF7D7FF06906E49C831B8
:1031C00031F81400FDF798F807466A49FDF756F8FC
:1031D00006460799FCF7C8FF0790641C642CC2DB05
:1031E000002484E0624931F81400FDF785F8824636
:1031F0000499FDF70BF880465D4931F81400FDF79E
:103200007BF882460499FDF701F881464146FDF7B7
:1032100003F807465749FDF731F806460099FCF7D1
:10322000A3FF00905249C83131F81400FDF764F84B
:1032300082460599FCF7EAFF80464D49C83131F8CE
:103240001400FDF759F882460599FCF7DFFF814627
:103250004146FCF7E1FF07464649FDF70FF80646F1
:103260000199FCF781FF0190434931F81400FDF703
:1032700043F882460699FCF7C9FF80463E4931F87B
:103280001400FDF739F882460699FCF7BFFF814626
:103290004146FCF7C1FF07463649FCF7EFFF0646FB
:1032A0000299FCF761FF02903349C83131F81400EC
:1032B000FDF722F882460799FCF7A8FF80462E49C1
:1032C000C83131F81400FDF717F882460799FCF76A
:1032D0009DFF81464146FCF79FFF07462549FCF7C5
:1032E000CDFF06460399FCF73FFF0390641C642C56
:1032F000FFF678AF21490098FDF718F836D21F493C
:103300000198FDF713F831D21C490298FDF70EF829
:103310002CD21A490398FDF709F827D24FF07C51B7
:103320000498FCF721FF0446FCF7EBFF28804FF0E0
:103330007C510598FCF718FF0446FCF7E2FF688013
:103340004FF07C510698FCF70FFF0446FCF7D9FFBD
:10335000A8804FF07C510798FCF706FF0446FCF765
:10336000D0FFE880002008B0BDE8F0870120FAE730
:10337000800400200000C842100600200000204108
:10338000014604484861044848600448C861002078
:1033900070470000A1330008F13800080D3600081E
:1033A0002DE9FF4F8BB0924600250B9830B10128D4
:1033B00013D0022818D005287ED11BE008A8FDF7FD
:1033C000F9FFCDF81CA0DDF81CA00C2208A90020F4
:1033D000DAF80430984783460AE14FF400518648F2
:1033E000FDF7D4FF834603E180218448FDF7CEFF3B
:1033F0008346FDE00E98182804D04FF0FF300FB040
:10340000BDE8F08F54460027C9E0206850F82750E7
:1034100007EB4701A06830F8119007EB4701A0685F
:1034200000EB4100468807EB4701A06800EB410034
:10343000B0F80480A94502D9A9EB050001E0A5EB8D
:103440000900052801D34D4500D94D46AE4201D9AA
:10345000701B00E0A81B052800D23546A84502D9FC
:10346000A8EB050001E0A5EB0800052801D34545C0
:1034700000D24546E06850F82700B8B3B5421CD9E1
:10348000A81BFCF739FF0490A9EB0600FCF734FFFA
:10349000014602905A48FCF7F1FE03900499FCF7AC
:1034A000BBFE57490590FCF75FFE0690FCF729FF2D
:1034B000616821F8170071E099E0A5EB0800FCF7BE
:1034C0001BFF0590A6EB0800FCF716FF01460390D2
:1034D0004B48FCF7D3FE04900599FCF79DFE06903F
:1034E000FCF70FFF616821F8170057E0FFE7B542CE
:1034F0002AD93046FCF700FF02902846FCF7FCFE74
:1035000001900299FCF782FE04904846FCF7F4FE15
:1035100001903046FCF7F0FE00900199FCF776FE32
:10352000014602903648FCF7A9FE03900499FCF787
:1035300073FE33490590FCF717FE0690FCF7E1FE99
:10354000616821F8170029E04046FCF7D5FE02909B
:103550002846FCF7D1FE01900299FCF757FE049033
:103560003046FCF7C9FE01904046FCF7C5FE0090CE
:103570000199FCF74BFE014602902148FCF77EFEC4
:1035800003900499FCF748FE1E490590FCF7ECFDFA
:103590000690FCF7B6FE616821F817007F1C042F27
:1035A000FFF633AF20211848FDF7F0FEC703402196
:1035B0001548FDF7EBFE47EA803701210F48FDF77C
:1035C000E5FE47EA403780210F48FDF7DFFE47EA76
:1035D000003061680881A08A61684881616820695B
:1035E0000C224368002098476168888100E000BF92
:1035F00000BF584603E7000000100140000C0140E6
:103600000000FA4300007A44000801402DE9F04F21
:1036100087B081460E4617469846DDF840A03446EE
:103620003D46C34658E1AD4801680068401CAB4ABE
:1036300010604EF6602081422AD9002011460860B1
:10364000052202A9484600F053F900200EE002A925
:1036500031F8201000EBC00202EB0012A04B03EB8C
:10366000C202A04B1B6822F81310401C0428EEDB9A
:103670009C480068401C9B490860642808D10020D1
:1036800008606846FFF760FD10B901209649087090
:103690009648007820B1012833D0022876D15FE027
:1036A0009148007801282BD100208F490870BDF87F
:1036B0000000B0F5FA6F23DDBDF80200B0F5FA6F37
:1036C0001EDDBDF80400B0F5FA6F19DDBDF8060087
:1036D000B0F5FA6F14DD002006E03DF8101000EBA5
:1036E000400224F81210401C0428F6DB01207F4918
:1036F000087000231A4619460320D5F814C0E04785
:10370000E9E079480078012829D10020764908703D
:10371000BDF8000040F2DC51884220DABDF802001A
:1037200088421CDABDF80400884218DABDF80600A9
:10373000884214DA002007E03DF8101000EB400248
:1037400004EB42029180401C0428F5DB022067490B
:10375000087000231A461946D5F814C0E047BAE0AD
:103760006148007801287DD100205F49087000BFC2
:1037700007E03DF8101000EB400204EB42025180DC
:10378000401C0428F5DB0021084661E0A2E000EBC4
:10379000400C34F81CC000EB400E04EB4E0EBEF89B
:1037A00004E0ACEB0E0303EBD37C00EB400E04EB28
:1037B0004E0EBEF804E00EEB6C0C00EB400E04EB7A
:1037C0004E0EBEF802E0F4451EDD00EB400C34F86E
:1037D0001CC000EB400E04EB4E0EBEF804E0ACEB58
:1037E0000E0202EBD27C00EB400E04EB4E0EBEF854
:1037F00004E00EEB6C0C00EB400E04EB4E0EBEF83A
:1038000002E0ACEB0E0C1DE000EB400C34F81CC0E9
:1038100000EB400E04EB4E0EBEF804E0ACEB0E01E4
:1038200001EBD17C00EB400E04EB4E0EBEF804E041
:103830000EEB6C0C00EB400E04EB4E0EBEF802E0FB
:10384000AEEB0C0C1FFA8CFC2DF810C0411C084686
:1038500004289CDBBDF80000962830DABDF8020091
:10386000962800E035E02ADABDF80400962826DA2A
:10387000BDF80600962822DA402322465146012050
:10388000DBF814C0E04790B900231A4619461846E1
:10389000D5F814C0E04700BF00231A46194601209E
:1038A000FFF77EFD0028F7D007B0BDE8F08F0023BA
:1038B0001A4619460920D5F814C0E04709E000234C
:1038C0001A4619460620D5F814C0E04700200749DB
:1038D000087000E000BF00BFA5E60000280000203F
:1038E0008004002030000020340000202C00002044
:1038F00070B504460D461646324629462046FFF767
:1039000043FB70BD2DE9F04107460C46154629469C
:103910002046FCF723FE06463046BDE8F08170B530
:103920000446FDF741FD054600BFFDF73DFD401B88
:10393000A042FAD970BD70B50446FDF735FD0546C5
:1039400000BFFDF731FD401BA042FAD970BD000059
:103950004FF6FF700549086004483438006820F0CD
:1039600001000249343908600020704734040040E7
:103970002DE9F04706460F4690461C464FF0000AD8
:10398000B946454616B1012E2CD118E0402C03D083
:103990004FF0FF30BDE8F08740222946134800F081
:1039A00027F8A21E29460020D9F804309847E98F4D
:1039B000884201D0012000E00020824613E0402C24
:1039C00002D04FF0FF30E5E7A21E29460020D9F8CB
:1039D00004309847E88740222946044800F01EF842
:1039E000824600E000BF00BF5046D3E700F8000861
:1039F00070B503469818084EB04202D34FF0FF301E
:103A000070BD1C460D46002002E0265C2E54401C72
:103A10009042FAD30020F3E7000002082DE9F043BA
:103A200085B005460E4617464FF00008B146FDF733
:103A300007FB0020009002950120039004A968462E
:103A4000FDF74EFA18B1012005B0BDE8F08300245F
:103A50000AE039F814C005EB440162460023012056
:103A6000FDF796FA8044641CB4EB570FF1D340463F
:103A7000EAE700001CB504468DF804404FF6FF70DD
:103A800001230DF1050201A9009003480068FEF72B
:103A9000E3F99DF805001CBD3800002010B5044670
:103AA00000231A461946184600F006F801486061DE
:103AB000002010BDB93A00082DE9F04104460D463A
:103AC00016461F460E2C75D2DFE804F007101922A7
:103AD0002B343D464F58616A757E00231A464FF4D9
:103AE000FA6148F6A04000F07FF878E040F2D17328
:103AF0001A46591E48F6A04000F076F86FE040F2F2
:103B0000D1730022591E48F6A04000F06DF866E01F
:103B1000002340F2D172511E48F6A04000F064F834
:103B20005DE000234FF47A72510048F6A04000F0A7
:103B30005BF854E040F2D1735A10510048F6A040AF
:103B400000F052F84BE04FF47A731A46590048F6E9
:103B5000A04000F049F842E000234FF47A7251008F
:103B600041F2707000F040F839E040F2D1735A1021
:103B7000510041F2707000F037F830E04FF47A7382
:103B80001A46590041F2707000F02EF827E04FF409
:103B90007A730022590048F6A04000F025F81EE094
:103BA0004FF47A7340F2D172511E48F6A04000F0F3
:103BB0001BF814E012E04FF47A730022590041F22E
:103BC000707000F011F80AE04FF47A7340F2D1728D
:103BD000511E41F2707000F007F800E000BF00BF16
:103BE0000020BDE8F081000030B50B4C246824F0C3
:103BF0000104094D2C60084C28342060241D2160EC
:103C0000054C3C342260241D23602C46246844F07B
:103C100001042C6030BD00000008004008B5FDF72D
:103C2000E3FBFFF721F8FEF72FFCFEF713FCFEF78E
:103C3000AFFBFEF7A3FCFEF7C3FCFEF705FD6148F2
:103C4000FCF772FC6048FFF729FF6048FCF79EFC18
:103C50005F48FFF795FB5F48FCF772FD5C48002367
:103C60005A4A194644691846A0475B490880584893
:103C700005225A4943685A48984757480288594983
:103C8000594800F0BFF840B14F4800231A46194682
:103C900044690920A04700BFFEE74E484023534A2D
:103CA0004A4944690020A04768B9494800231A4698
:103CB000194644690120A04728B14C48008B464969
:103CC0000988884212D0404800231A4619464469A0
:103CD0000620A04740480088444908833B4800909C
:103CE0003B483C4B384AC4693D48A04740214048C6
:103CF000FDF74CFB08B1012000E000203D490860C1
:103D000020213B48FDF742FB08B9012000E00020DC
:103D10003849486002213648FDF738FB08B10120D8
:103D200000E000203349886008213148FDF72EFB70
:103D300008B1012000E000202E49C860224800237D
:103D40001A46194644690420A04739E02048052254
:103D50002249436822489847204827490860274855
:103D60004860224888602348C860184808611A489B
:103D700000884861164818230A4600214469052036
:103D8000A0471F4801680068401C1D4A1060502071
:103D9000B1FBF0F200FB121028B913480E221749AC
:103DA0000368002098470D48006940F636118842A4
:103DB00006D2044800231A46194644691846A0470B
:103DC000C4E70000D4010020B4010020F401002069
:103DD0001402002034020020100000206C04002097
:103DE000DC020020DC000020BC0200205402002085
:103DF000000C014014000020A402002094020020C6
:103E00002400002070B504460D46164625B115481D
:103E1000006808B913480560134820601348A06182
:103E200013486060FEF7F0FD10B14FF0FF3070BD39
:103E300080211048FDF7AAFA01280BD1300A0E495B
:103E400008704E70084600784978084400F07F00FA
:103E50000A490870094801780748FEF73FFE00202C
:103E6000E5E7000038000020A53E00081F390008E3
:103E7000813E0008000C01403C0000204100002071
:103E80002DE9F04106460C4617460120FEF76AFE72
:103E900003492046FEF79CFC05462846BDE8F08114
:103EA0003C00002070B506460C4615460020FEF783
:103EB00059FEE9B203480378034A2046FEF70AFD9B
:103EC000002070BD410000203C0000207047000031
:103ED00000000000000001020304060708090000BA
:103EE0000000010203040000C1C081C1400101C300
:103EF000C003800241C201C6C006800741C7000559
:103F0000C1C581C4400401CCC00C800D41CD000F5F
:103F1000C1CF81CE400E000AC1CA81CB400B01C97E
:103F2000C009800841C801D8C018801941D9001BB8
:103F3000C1DB81DA401A001EC1DE81DF401F01DDD6
:103F4000C01D801C41DC0014C1D481D5401501D7AF
:103F5000C017801641D601D2C012801341D3001180
:103F6000C1D181D0401001F0C030803141F1003327
:103F7000C1F381F240320036C1F681F7403701F5D6
:103F8000C035803441F4003CC1FC81FD403D01FF5F
:103F9000C03F803E41FE01FAC03A803B41FB003900
:103FA000C1F981F840380028C1E881E9402901EBD6
:103FB000C02B802A41EA01EEC02E802F41EF002D58
:103FC000C1ED81EC402C01E4C024802541E50027AF
:103FD000C1E781E640260022C1E281E3402301E1FE
:103FE000C021802041E001A0C060806141A1006348
:103FF000C1A381A240620066C1A681A7406701A556
:10400000C065806441A4006CC1AC81AD406D01AF5E
:10401000C06F806E41AE01AAC06A806B41AB00697F
:10402000C1A981A840680078C1B881B9407901BBB5
:10403000C07B807A41BA01BEC07E807F41BF007DD7
:10404000C1BD81BC407C01B4C074807541B50077AE
:10405000C1B781B640760072C1B281B3407301B17D
:10406000C071807041B00050C19081914051019366
:10407000C053805241920196C056805741970055D7
:10408000C19581944054019CC05C805D419D005F5E
:10409000C19F819E405E005AC19A819B405B0199FD
:1040A000C059805841980188C04880494189004BD7
:1040B000C18B818A404A004EC18E818F404F018D55
:1040C000C04D804C418C0044C184818540450187AE
:1040D000C047804641860182C042804341830041FF
:1040E000C18181804040000008410008000000209C
:1040F00044000000682F00084C41000844000020E4
:104100005C0B0000782F000800A24A0400000000A9
:10411000100000000100000000000000010000008D
:10412000000000000100000001000000000000008D
:10413000000000000000000000000000000000007F
:0C414000000000000000A5A6A73C000045
:04000005080000ED02
:00000001FF
