:020000040800F2
:20000000005000207D3D0108293E010851270108293E0108293E0108293E0108000000006C
:20002000000000000000000000000000293E0108293E010800000000293E0108352701080B
:20004000293E0108293E0108293E0108293E0108293E0108293E0108A5260108A12601085C
:20006000293E010845270108293E0108293E0108293E0108293E010861260108293E0108DB
:20008000A9260108293E0108293E0108293E0108293E0108293E0108293E01089D2601081C
:2000A000293E01081D260108293E01082D2601080D260108FD250108ED250108E526010822
:2000C000DD260108E1260108D9260108293E0108293E010855260108492601083D260108B4
:2000E0004B270108293E0108293E01080000000000000000000000000000000000000000A5
:2001000000000000000000005FF808F1FFFFFFFF2DE9F04F784B794C9FB0236000236360FE
:200120000CF02EFD18B911F0D1FF0CF04BFD0DF009FB734B734C1A78734D42F001021A7023
:2001400000230693079308934FF4E01309932368A97B43F480332360A36943F01003A3616A
:20016000236803F400330793069B01330693079B1BB9069BB3F5A06FF2D12268614B12F4F5
:20018000003201D0022315E0186840F0010018600692236803F002030793069B01330693F6
:2001A000079B1BB9069BB3F5A06FF2D123689A0739D501230893554B55481A6842F01002B2
:2001C0001A601A6822F003021A601A6842F002021A606368636063686360636843F480635F
:2001E00063604C4B1A68043B22F070425A604A4A1060606820F47C106060586840F000400A
:200200005860D86820F40040D8609B681B0449BF424B4FF4E01313604FF480130993089BE5
:20022000012B01D117E0FEE7022B18D169B1099BB3F5801F02D14FF4A01305E0099BB3F5CF
:20024000E01F02D14FF4001309936168099B0B4343F4803302E0636843F460136360236890
:2002600043F0807323602168264B8F01FBD5596821F003015960596841F002015960636873
:20028000204903F00C03082BF9D14868244B00F00C00042803D0082804D01D4900E0116819
:2002A000196011E048684E68C0F38340F60300F1020001D41B4905E0496811F4003F116880
:2002C00018BF49084843186060681749C0F30310084490F818B0186820FA0BFBC3F800B05E
:2002E000EB7B0648003318BF012303721368084A93421BD101221DE00F7E000868130020C9
:20030000A834002000100240A00200200020024000127A00041001401C000020001BB7007C
:200320005400002000093D002C9A0108AA4A934202D10222A94B1A70DFF8FC92A84BA949AC
:20034000C9F80C30A3691EAF43F00103A361636ADFF8B082CB60636ADFF8A4A243F080737B
:200360006362A3694FF0000243F01C03A3614FF6FF7327F82C3D404639468DF84E20039744
:2003800006F035F85046039906F031F89648039906F02DF802238DF833301EAE4FF40073C5
:2003A0004FF0100C26F8483D8DF832C03146C8F810304046CDF808C006F019F88B4B0398C6
:2003C0005A6842F000725A6008F018FC884A139B8448B3FBF2F3036100211822143015F00A
:2003E000B3FF4FF47A72834BBBFBF2FB0BF1FF325A60F02289F823200021072299601A6031
:20040000AB68DFF83892DDF808C0C9F800307A4BDFF82CB20FCB87E80F00A369139843F0DE
:200420000803A361A36914A943F00803A3610823CAF81030CAF810C005F0D9FF159816A9AA
:2004400005F0D5FFD9F8003018073FD59BF88E31012B3BD8634F9BF88F21FB6813F08058DB
:2004600000F0F48500278FB3644B654F18684FF0100AC7F814A003991390624805F0B7FF67
:200480006048082303613C2007F0B7FBC7F810A04FF0000A95F88F319A4513DA5949DFF8D6
:2004A00060B10827CBF8107078204F6107F09AFB544ACBF814707820176107F093FB0AF170
:2004C000010AE7E7B8F1000F00F0C785642007F094FBA0224C48002115F036FFE369002226
:2004E00043F00703E361A36943F4006343F00C03A3613C4B4FF0000803F12C0102F8018025
:2005000001320E2AF5D1FF2283F83A2083F83B2083F83C2083F83D203C4B3D4AD9F80070E0
:200520001A6041463B483C2215F00EFF07F04004052341460C20384A484311F802E0354A3A
:2005400000F802E054B9AEF11E0EBEF1010F05D84FF0FF0E013B00F802E0DBB201310529FE
:20056000E8D12E4A95F8058013702D4B2D4A83F800801C4BB9061A6402F1C0025A642A4A40
:2005800002EBC802527848BF01229A640023274A40F2DC5199520233102BF8D13046002104
:2005A0001C2215F0D1FE17F4007907F4006649D0BB040CD446B11E4B95F88211A3F10C026A
:2005C000012918BF134600E01A4B049301E0184804900399129137E0001BB700D5340020BF
:2005E0000005FA0568130020001001400000014040420F0010E000E0549A0108649A01086B
:20060000000C01400008014008330020B41C002090040020701D0020E2B801086D1D00204B
:20062000B00D0020B0020020C8B90108CA0D0020389A01082C9A010800ED00E0DC00002017
:20064000A0020020CDF81090B8F10E0F04D008F0EF08B8F1080F02D101238DF8423001201B
:2006600007F0D4F918B14088003018BF0120C7F3400300348DF83630C7F3403300F00100C3
:2006800018BF01248DF83030C7F3C0338DF835008DF838408DF8333026B195F88261701E58
:2006A00046424641B94AC7F300438DF83930936C19F1000918BF4FF00109003318BF0123DD
:2006C0008DF83B30C7F300538DF83C30B5F846318DF83460ADF84030B5F8523107F00106AC
:2006E000ADF83E304FF47A53ADF8443095F8D231C7F3C00482F84C30002102F15000C7F39C
:20070000804764228DF831608DF832408DF83A908DF83770ADF8461015F016FE9DF84230E9
:20072000002B14BF0223002306B904B10133984F4FF0000B07EB8303DB6BDA460593059F80
:200740004FF6FF7337F80B209A4200F0AC81D3B2904E9DF835101D01741919B1991E0129FC
:2007600040F29B819DF8381021B171598A48814200F093819DF8397027B1715986488142A8
:2007800000F08B819DF8361039B161688348814203D12189102900F080819DF8331039B1D7
:2007A00061687E48814203D12189022900F075819DF8341039B161687948814203D12189CA
:2007C000022900F06A81DDF848E0BEF1000F0FD06068DEF8001088420AD12189BEF80400C2
:2007E000884200F05A81BEF80600884200F055814FEA1228B8F1020F02D19DF8302004E04F
:20080000B8F1010F04D19DF83120002A00F045819DF83B2062B19DF842204AB9A3F10802E9
:20082000012A05D871595F4A914208BF4FF004089DF83C2052B19DF842203AB917B10C3B6B
:20084000012B01E0043B032B40F20281B8F1010F40D14E4FFF2387F8F83087F8F930637BB3
:200860004FF00009228960688DF84E300399022387F8FC90C7F808418DF84F30ADF84C20D1
:2008800087F8B490C7F8B890C7F8BC90C7F8C090C7F8F49087F8FA9087F8FB9005F0A7FD85
:2008A0007059A17A4A4608F01FFB2046494642460BF01DFF3C4BC7F81491C7F80C313B4BB1
:2008C0002046C7F8103107F5867107F5887208F06DFFE2E0B8F1020F3CD15FFA8AF31C21C9
:2008E0004B43334A4FF00009D7184FF0010C87F801A087F8029087F80A9002F803C0637B85
:2009000022896068FC6003998DF84E30CDF808C0ADF84C208DF84F8005F069FD7059A17A38
:200920004A4608F0E1FADDF808C02046624649460BF0DDFE1F4BC7F818903B611E4B204608
:200940007B6107F1100107F1140208F02FFF0AF1010AA2E0B8F1030F77D19DF837300B4D9F
:2009600073B30023204608214FF6FF7295F851600BF090FF114B05EB8606C6F8DC01C3608B
:2009800095F8523005EBC30519234BE0681300202C9A0108E8B80108000400400008014089
:2009A000000C0140002C0140F1550008F556000864140020258F0008CD56000805570008F9
:2009C000BDF8443095F85160B3F5FA7F15D9A14A2046B2FBF3F20821BDF8463092B20BF02B
:2009E00059FF9D4B05EB8606C6F8DC01C36095F8523005EBC3050D2314E0984A2046B2FB9D
:200A0000F3F20121BDF8463092B20BF043FF944B05EB8606C6F8DC01C36095F8523005EB0B
:200A2000C305092385F855308E4B93F8522093F8511003EBC20080F8541001320131846524
:200A400083F8511083F8522027E0B8F1040F24D1BDF83E30814A834D92FBF3F2012192B27F
:200A6000BDF84030204695F850600BF013FF95F852200A2105EBC20383F8551095F85010F5
:200A800005EB860683F8541001320131C6F80C029C6585F8501085F852200BF1020BBBF148
:200AA0001C0F7FF44CAE6F496F4D91F85030002781F82C326D4B2F701C780E46A4F1170335
:200AC000022B19D8336C0021D85903EB070812F0FDF818B16348836C5BBB25E0644B07EBF4
:200AE000030E98E80F008EE80F002B7810370133C02F2B70E6D1EDE75E4B13F834C003EB08
:200B0000C403D3F8048085F800C0B8F1000FE1D06745DFDA564A3B0103EB020E43440FCB79
:200B200001378EE80F00F3E7534F3B68D90426D41FE05249524A01EBC40393F84C001F6DB6
:200B40001070002FF0D000238342EDDAC3EBC3017A18D2F80080DFF850C1013341F80C8048
:200B600001EB0C0E9188AEF8041092798EF80620EAE704F0EF03082B424B27D128E095F8E1
:200B80000090B9F1010FF4D93F4D4FF00008C84505F11005EDDA55F8100C4FF07C5111F016
:200BA00001FF4FF07C5145F8100C55F8140C11F0F9FE4FF07C5145F8140C55F80C0C11F09C
:200BC000F1FE08F1010845F80C0CE0E70E2C08D11A78182C42F010021A7008D107F024FB62
:200BE00005E01A78192C22F010021A70F5E70FF001F83B685A0302D4244B01221A70244B56
:200C0000244D1A78244C42F004021A702A789946012A8CBF102314238DF84E304FF00203F7
:200C20008DF84F30A3694FF4805243F00403ADF84C208CBF4FF001084FF00008A361174807
:200C4000039905F0D4FB164BB8F1000F2ED0154A2DE000BF00127A001557000840420F0061
:200C60000557000868130020980C0020B00D0020A80C0020C8B90108DC0000202C9A0108AB
:200C8000E00D00209A020020B00C0020B8120020A8340020D5340020001002400008014005
:200CA000B8340020D5780008E10D0020BF4A00201A6006F0E7FF039ABD4BDFF8088393E8C4
:200CC0000300A36982E8030043F0080314A9A361139805F08CFB0AF0F9FF9F238DF82C30DD
:200CE000322000234FF4805A8DF82D308DF82E308DF82F3006F081FF0422C8F814A003980E
:200D00000BA90FF0E7FFC8F810A09DF84E209DF84D30120242EA03429DF84F301A43A54BCF
:200D20009A4214D0322006F068FFC8F814A0F52009F0F8FDFF2009F0F5FD7028C8F810A0BB
:200D400005D12B78022B02D19B4B03221A702B78032B0CBF1F20022006F030FE2B78032B93
:200D600003D0012009F08EF909E0022006F04EFE18B14088003018BF0120C307F1D5D7F89A
:200D800000804FF0100B08F40043039308F4006305938A4B002118465A462D78029315F07A
:200DA000D3FA4FF6FF72ADF82C20029B02224FF0000A18EA02018DF82E208DF82FA09846AB
:200DC00012D01EA921F84CBD7D4808F039F9042388F800300722012388F801A088F8023062
:200DE00088F803209A4600E08A46039BA3B11EA9022221F84C2D724808F022F901220AEB6C
:200E00000201072388F805A088F8042088F8062088F807305FFA81FA012D15D920221EA986
:200E200021F84C2D664808F00BF90522012388F8082088F80A300AF10102072388F809A078
:200E400088F80B305FFA82FA059BABB102221EA921F84C2D5B4808F0F3F80922012388F834
:200E60000C2088F80E300AF10102072388F80DA088F80F305FFA82FA6268534842F4404282
:200E800062606269504D42F001026261A26942F40072A2610AF0EBFA13A80AF0BDFA4B4A9A
:200EA000002413924A4ABAF1020F149234BF2246802218924FF4807219924FF480621A921B
:200EC000202228461B9213A94FF400521C921594CDF858A017941D940AF0ABFA2A68BAF118
:200EE000010F42F001022A603A4A98BF0020516888BF012021F4702121F4807141EA00210F
:200F00005160906834490AF1FF33014041F4602141F002019160D16ADBB221F4700141EAE9
:200F20000353D3622046012308EB00018A78002A74D018F800205C1C092A91F803E0E4B25B
:200F4000244911D9A2F10A0505EB45054FF0070C0CFA05FC0EFA05FED1F80CA02AEA0C0C59
:200F60004CEA0E05CD600EE002EB42054FF0070C0CFA05FC0EFA05FED1F810A02AEA0C0CD0
:200F80004CEA0E050D61062B124927D8013B03EB83034FF01F0E0EFA03FE9A404D6B25EA49
:200FA0000E0545EA02034B6339E000BFE9780008489B010815202000D5340020881B0020CE
:200FC00000080140000C0140080002404C240140981B002000240140FDF7F1FF0C2B0ED847
:200FE000073B03EB83034FF01F0E0EFA03FE9A400D6B25EA0E0545EA02030B630FE00D3B79
:2010000003EB83034FF01F0E0EFA03FE9A40CD6A25EA0E0545EA0203CB6200E01C460430DD
:20102000102801D023467FE71D4B9A6842F480729A609A6842F001029A609A6842F00802DD
:201040009A609968164A0D070ED5FAE7571E092F8CBF00270127FFF706BA124B83F88F8178
:201060000AF08AFEFFF732BA936843F0040393600B4A936813F00403FAD10A4D9168B5F8C2
:20108000580141F4A001916078B9B5F95A315BB9B5F95C31D3F1010338BF002305E000BFF1
:2010A00000240140A0020020034613F001031CD1BE4A00B2137111F021FCBD4911F072FCFB
:2010C0001390B5F95A0111F019FCB94911F06AFC1490B5F95C0111F011FCB54911F062FCCB
:2010E000B449159013A807F0BDFA3B689C0320D5C82006F082FDAE2009F016F908B10EF0C4
:20110000AEFE86F85402C82006F077FDAA4B00210C22AA48C6F8583215F016F9022386F8C8
:201120005F3210F087FB06F042FDA54B0344C6F86432A44CB5F86001266895F85F11B6F9A4
:20114000566095F8672195F8683100960BF006FEA04610B9012006F09DFD99F800301022B6
:2011600043F0020389F80030974B0A265A6108221A61954C1920E368013E83F01003E360A7
:20118000E36883F00803E36006F037FD012006F079FD192006F031FD002006F073FD16F0A3
:2011A000FF06E6D108234FF01009884E2361C4F810903368180709D5854BC4F814901B68EF
:2011C0009847844B0122C4F810901A70824B834C1B68187B11F092FB754911F0E3FB04F087
:2011E000B5FD8146208811F089FB494611F0DAFB15F0BAFA7A4B1880208811F07FFB014664
:20120000784811F083FC784911F080FC774B68491860774B774CD86811F0C4FB764911F020
:20122000C1FB764BFF2118601B22204615F08CF8002222703268724B012112F0020F1970A4
:20124000204604D06170032119700221A170510704D519784C1C1C700324445412F00A0F12
:201260000CD01A7804218154511CC9B205244454D11C02321970D2B2062181543A689406F7
:2012800004D519784C1C1C7007244454110608D51978092444548C1C01311C70C9B20A24D4
:2012A00044546979082901D00E2904D11C78671C1F700B2707551C784FF00C0E671CFFB251
:2012C00012F4803F1F7000F804E009D004F1020E4B4C84F800E0474C4FF00E0E04F807E03C
:2012E000540704D51C78671C1F70102707551C784FF0120E671CFFB212F4806F1F7000F8DE
:2013000004E00ED095F81CE2BEF1000F09D004F1020E3B4C84F800E0364C4FF0130E04F823
:2013200007E0940504D51C78671C1F701527075518290DD11C7816270755671CFFB24FF057
:20134000170E00F807E0E71C0234E4B21F700155110304D519784C1C1C7019244454D205B7
:2013600004D51A78511C19701A23835400219822244814F0E9FF244C0EF0E0FDB5F84E314E
:201380002249A4F86C3200230B808B70D8F80010094A01F1790CB5F894011D49C4F8682267
:2013A0000A6084F86E3282B234E000BF1C00002035FA8E3C9815002026040020C41500205B
:2013C000404B4C002C0B0020000C0140400200208C0200208C0A0020C80B002008000020B1
:2013E000EC0B00200AE81C4100401C46D80A0020300B00200B1D0020BD378635C40B0020A2
:201400000A1D0020181C002068130020800D0020E4000020A54FA649D7F80090DFF8F0E2FA
:2014200009F596795A524EF813900233242B8A46F0D1A04BD3F800E000231EF4805F08BF84
:20144000B5F89A21CA801CF80320E2B90CEB0302917892F803B0594515D239B1013901EB31
:20146000810101EB810101F5617107E00BF1010B0BEB8B0B0BEB8B0B0BF56171527889B2D6
:2014800004322AF812100433502BDCD11EF0080F00F0BC8095F88E31062B00F2B180DFE8BB
:2014A00003F004070E35506F6F0045F2F05201E042F6F822804B1A800EF0CCFD9FE07E4B9D
:2014C00042F6F8221A8000010A2390FBF3F0A0F5B0600023794A98500433482BFAD1784ADA
:2014E000784B40209A60784B12221A7006F0C8FA002800F0858001234FF0070A90F900007C
:2015000040218DE80804714A714B73E06A4B42F6F8221A806F4A6B4B40209A606A4B1022CE
:201520001A7006F0ADFA00286AD001234FF0000990F9000040218DE80802674A4FF4E13345
:2015400058E05D4B42F6F8221A80644A5D4B40209A605D4B08221A7006F092FA00284FD0EA
:2015600001234FF0000C90F9000040218DE808105B4A4FF4E1330AF05FFBC4F8B8023BE0A4
:201580004D4A42F6F82111804F490C22062B55480A7010D00023037084F8BC3284F8BD3279
:2015A0001B2384F8BE32052384F8BF2284F8C0324FF4E1350DE00021017084F8BC1284F8F0
:2015C000BD12494D212184F8BE1284F8BF2284F8C032464A3B4B40209A6006F051FA78B173
:2015E00001234FF0000E424A90F9000040218DE808402B460AF020FB003018BF012028B9B8
:20160000082004F0F1FB3B4A2E4B9A60294A1368924613F4804F2C4A04D0122111703648B2
:201620002849886042F20101194089B1224944F620600880980404D5082111702F482149DB
:201640008860D90704D50C2111702D481D49886011781D06A1F10401517040F192804FF0F2
:20166000000B284B284D152259462848C4F8C43285F801B0C5F804B0C5F808B0029314F0D2
:2016800063FE029BDFF88C90053B5846C9F8003006F0F8F83B680220EB6006F0F1F94A4624
:2016A000D0BB802004F0A0FB63E000BFA434002056020020DC000020480C00203801002035
:2016C000398900081C000020261D0020A58B0008A086010029890008F58A0008158900085B
:2016E000A98A00081C02002090D00300D58800088D89000889890008658900087189000879
:201700007D89000890040020000B002030160020D8150020200B002090F805E06B78BF49C6
:201720004FF00C0C0CFB031C9CF801C0F44504D00133DBB2042BF2D900236B70136890F90D
:2017400000001B78002B6B784FF00C0505FB03110CBF01220322009200224B780192022144
:201760000AF06AFAAE4B186000289AD0012006F089F8D8F80000AB4B00F5C5721A6004F010
:20178000E9FCDAF80030980560D5A74D049AA74B2A609A69049842F001029A6103884FF0E9
:2017A0001008ADF82830A24802230AA98DF82A808DF82B3004F01BFE2B689D485B880AA928
:2017C000ADF8283004238DF82A3004F010FE2B680120197A04F0F6FD2B68964A5B684FF061
:2017E000000B536113A88DF851804FF0010813938DF850B08DF8528007F0F4FB2B680BA823
:201800005B7A8DF82EB08DF82C3003238DF82D308DF82F8008F0A6F83A68874B3C3A1A6079
:201820003368C82243F0100333604FF4C873A4F8DE32824B1A80824BE1221A80814B40F251
:2018400071121A80804B4FF0FF321A607F4B804DC4F8E0328033C4F8E432DAF800300026A4
:20186000D9032E7040F1AA80DFF814926F4F40F22A3B04F0D3FB4FF001085A463146484612
:2018800085F8008014F060FDBB69724843F00403BB614023ADF8283018238DF82B300AA988
:2018A00003238DF82A3007F0CBFBFB696A4D43F00203FB61694BA7F694771A68684BB2FB79
:2018C000F3F22B88013A23F45C731B041B0C2B8092B21D23AB852A85A5F814802B8C23F000
:2018E00001031B041B0C2B842B8CA9882A8B23F0020322F0730212041B04120C1B0C89B2FE
:2019000042F0600243EA0803A9802A83AE862B842B8B23F008031B041B0C43F008032B833C
:20192000B5F844306FEA43436FEA53439BB2A5F84430D7F8A83F43EA0803C7F8A83F384648
:2019400009F095FD13A809F067FD464B802218924FF480721393199210234FF4005238463B
:2019600013A915931C920293CDF85090CDF858B017961A961B961D9609F05BFDAA89029B6C
:2019800092B242F40072AA813A680BA842F002023A608DF82C308DF82D808DF82E608DF860
:2019A0002F8007F0DFFF304B1A68304BF2500436802EF8D107F024FE07F022FEDAF8003006
:2019C0005A0540F18980D4F81466294B04201E6006F056F80421C4F8180606F02BF8254B46
:2019E00084F81C0608201E6006F04AF8224B0821186006F01FF8214D84F81D0600212846B4
:201A00002C2214F0A1FC8E236B704FF07C08E0237D27EB7085F8008034E000BF0089010824
:201A2000FC0A0020880C0020F80A002000100240000C014000040140F40A0020BC0A0020C2
:201A4000B40A0020C40A0020B80A0020CC040020E1120020000801400004004054000020D4
:201A600000366E0134040040288D0108E2120020CC1D0020201E00206C1E0020F01D002039
:201A80005016002085F82B70864D2C220021284614F05AFC8A236B701020A023EB7085F84B
:201AA000008085F82B70C4F8206605F0E9FF1021C4F8240605F0BEFF84F828062020C4F800
:201AC0002C6605F0DDFF2021C4F8300605F0B2FF84F834060EF0CAFC734B744D1B78022B11
:201AE00064D1734B00261A88322022F040021204120C1A801A884FF4805722F03802120499
:201B0000120C1A801A8892B242F040021A809F238DF82C308DF82D608DF82E608DF82F603D
:201B200006F06BF88DF84D60624E0422776113A80BA90FF0CFF837619DF84E309DF84D208A
:201B40001B0243EA02439DF84F2013435A4A934219D00AD8A2F51A42033A93420CD002F580
:201B60001A420232934209D01BE0544A934205D00132934207D014E0202300E080232B80A0
:201B80004FF4807302E04FF480732B806B80AB882A881B02AB605343EB60012384F8353668
:201BA00004E000232B806B80AB60EB60EE6816B3F60A37464FF00008B0450BDA08EB060577
:201BC0006D100DF14C0BE802594610220FF0EAF80F2805DCFF020CF0E3FCC4F838760AE04F
:201BE00000235BF80320013258D10433102BF8D12E462F46E0E7DAF80030314A13F400235E
:201C000018BF0123137005F0D2FF2E4B18602E4B5A791946052A03D12C4B4FF4C8721A8053
:201C20002B4B4FF47A721A802A4BC8221A802A4B1A7842F008021A70284B1A7822F0020284
:201C40001A70DAF8002040F6020313406BB12448244B1860244B03201870244B01201870D9
:201C600023480023038023480380930308D5042384F8603294F85F3243F0010384F85F325C
:201C80008B681D4901220B601C4B1A701C4B1A7862F07F021A701FB0BDE8F08F05F1010824
:201CA0003D46A6E7251E0020D53400202800002000380040000C014018BA20001740EF0043
:201CC000B9120020180C0020A0020020AE0B0020CE340020CC3400209A020020D434002014
:201CE00018040020C41D0020241E0020580000207A1B00207C1B0020DC000020B81200207B
:201D0000A8340020A2492DE9F04F0A68A14802F59C4320330360A04B87B01E78C6B1194612
:201D20005B689A4240F20A81013E0E7006E12B68072C98BF195D994B88BF21461B6898481B
:201D40009847032C0CD9944A013602EB44042081934BF4B21A78934DA2421A46E7D81EE0AE
:201D60002B6804F10E0203EB82029388D2880028E9D0C01A4FF47A714843D31A90FBF3F015
:201D8000084440F6C903984205DC40F2EE239842B8BF184601E040F6CA0080B2D3E7824BAE
:201DA00042F201091B6803EA0909D9F101097F4B38BF4FF00009D3F800A07D4BB9F1000F9A
:201DC00006D17C49097819707B4908787B4908701E781EB1794B1E7886F001066E490F23B8
:201DE00081F82C30764B92F800801F780322B7FBF2F202EB4202BA1AD2B201F12E0303EB57
:201E000042020024D5F800B04FEA480C0292254664455AD016B16B4BE05A00E03046BBF8BE
:201E20001430834206D8BBF81610814234BF0021012100E00021644BE9B953F825309A4518
:201E400002D2624BE05A1AE0EBB218468DE808100DF088FE009BDDF804C0032B0FD84FF03A
:201E6000010E0EFA05FE4C4B93F82C1021EA0E0183F82C1003E00AF5967143F81410B9F127
:201E8000000F1DD1029A444B04EB4401505293F8762022B9022F13D9012083F876004C4B82
:201EA000581831F803E041884A337144B0F804E0714489B2E15208B2032390FBF3F080B27C
:201EC000424B0135E0520234A2E7334B374A93F82C10B1F10F077942794183F890103D4BB8
:201EE00069B13D4909684E0109D41268D9689A60521AC82A1ED9012283F821201AE02E484C
:201F0000012101702D48126801709968DA605B68521A9A4203D92F4B002283F82120002430
:201F2000444507DAE0B20DF01DFE284B23F814000134F5E7224B1A7801321A701A4E33681B
:201F4000DD0405D5244B1B68DC0701D40EF04CF80F4B1D68134B19688B7A002B40D01B4A77
:201F6000013B32F813000B7B1BB1C0F53B60083080B200B2A0F57A70B0F57A7FA8BF4FF463
:201F80007A7020EAE07010F0B9FC14495DE000BFAC34002038020020A41900202400002074
:201FA000261D0020E4000020DC000020A4340020D0000020D800002001000020000000209D
:201FC000D6150020AC190020D815002056020020D2190020800D00204402002000007A44B0
:201FE000326810043AD58C4AD2F89400281A002834DB05F59C402030C2F894008748C97AF1
:202000004479874830F8140080B290FBF1F092F89810013101F00F0182F898100A4482F80B
:20202000990018467F4A9A5C01331044102B80B2F8D100B290FBF3F000B26428A8BF6420E3
:2020400020EAE07010F05AFC774910F05FFD774910F0A8FC10F092FE754B18803368754C0C
:2020600013F4807F00F00081734B744F9D4203D9BB780BB90123BB70BB78002B00F0F480A5
:202080006E4B94F8008093F821506D4B691E4D421A684D41002DC2F380690CBF03220022C4
:2020A000C8F380089A46029297F82030052B00F2D680DFE803F0034E5378859EB8F1000F61
:2020C0003AD0604B1868604B19880DF075FD012809D15E4B64211A684F4BD3F8AC30DB88B9
:2020E00001FB03233B61B9F1000F0DD04A4BD3F8AC301B7943B105F08FFB032387F8203054
:202100004FF47A73FB61CFE7002D40F0A8804F4B3A691968DFF824B1914209D905F07CFB6D
:2021200003228BF8202040F6B832CBF81C20BBE701228BF82020B7E74FF48060B9F1000F96
:2021400002D007F011F901E007F01EF900233B6185E0002D45D105F05FFBA5E725B105237D
:2021600087F82030012100E02946B8F1000F0DD0344B1B68DA89364B1A805A809A80264AA6
:20218000D2F8AC205288DA80022202922F4B1A687B699A4202D8B8F1000F5DD147F2305385
:2021A000FB6103231EE0237843F0020323700DF01BFF264B1A68FB691344BB61042311E040
:2021C000224B1A688DB1BB699A4248D9214B1B781BB9DAF80030DA0741D4237823F0020333
:2021E0002370052387F820305EE7FB691344BB6135E0164B08491A68D1F8AC306421DB8863
:202200004FF4806001FB03233B61002387F82030FB7007F0B9F847E7A4190020881B00200A
:20222000981B00203D1A00200000C84200C07F44281D0020D4340020404B4C00800D0020B6
:2022400044020020D0150020D4150020A4340020560200201800002000297FF425AF029A56
:2022600012B1104607F046F8914D05F5C370B5F84E110DF0A1FCAB46804678B906F090F8F9
:202280008C4B0022C3F8B080C3F8B480C3F8B880C3F8BC20C3F8C020C3F8C42023785B07AA
:2022A00040D53368DF063DD5834B1B78DD0639D4824B804D1F788FB19BF8DE31B8F1000F5B
:2022C00016D173B17E4B1A68D5F8C8309B1A002B07DA0DF089FE85F8CC8023E0B8F1000F1A
:2022E00019D1102007F006F8012385F8CC3019E03BB1734A4FF47A71126801FB0323C5F809
:20230000C83095F8CC306BB106F0D8FF694B002283F8CC2006E095F8CC301BB106F0CEFF18
:2023200085F8CC7000229BF8DC919BF8DD11BBF89671BBF898E11346624D9B08505F0232CD
:20234000B842C4BF63F07F03DBB27045B8BF43F04003082AF0D1574D95F8CD209A4205D139
:2023600095F8CE20F92A04D8013200E0002285F8CE2085F8CD30514B534F1A789A46DAB986
:202380003B68D80708D5B8F1000F15D12378D90712D50DF0A9FE0FE023785A070CD54B4BD8
:2023A0001B784BB14A4BDB7833B911B10DF01CFE02E0B8F1000FF9D095F8CE203D4B142A3D
:2023C000DFF8208140F0A9809AF8002019F1000918BF4FF001096AB393F8CD205F2A11D147
:2023E000227802F0040202F0FF0112B10DF0FCFD08E00B200191009306F07CFF0199009BC2
:2024000083F8CE10B9F1000F14D095F8CD307D2B10D1237803F0040303F0FF0213B10DF069
:20242000E3FD07E00B20019206F064FF214B019A83F8CE20237803F0040303F0FF00002B9C
:202440006BD195F8CD301B4A572B15D1214B4FF47A721A8033681B0601D503F09FFC1E4B2B
:202460001B68580702D51D4A0A21118013F0080353D11B4A138050E03168490734D55A2BAF
:2024800032D192F8CF302BB1012382F8CF0082F8D03042E092F8D13083F0010382F8D1304E
:2024A0000BB10C2000E00D2006F024FF35E000BFA0020020A41900209A02002018000020A7
:2024C000A43400205602002044020020D0000020800D0020CE34002040020020CC340020E5
:2024E000040C00202C0B00205D2B00F050855B2B00F04F855E2B00F04E85562B01D109F026
:202500003BFC9AF80030002B00F0168595F8CD306F2B40F00B850DF0E7FD3368580736D542
:2025200095F8D130B44A93B1237859070FD5B34BB3F90610BBF89631994208DD3B6813F04C
:20254000010304D13221A2F8D21082F8D1303B6813F4803FA84B0CD095F8D4202AB993F831
:20256000CF2012B93222A3F8D220012385F8D4300DE095F8CF2052B1227802F0040202F02B
:20258000FF0122B9012283F8CF1083F8D020D8F80090002309F1790A3B6009F17B05984685
:2025A0000AF1020303EB080113F808204B7815F8010C9A420AD2294605F00AF930B115F807
:2025C000023C01229A403B6813433B6008F10408B8F1500F05F10405E2D1894B1F784FB102
:2025E000884FDFF840823B68874D13F0020F40F037832FE309F1C90809F1CA0508F1010353
:20260000D919DA5D4B7815F8010C9A4229D2294605F0DEF828B395F802E028797B4B0EF1F3
:20262000FF3E4FF00C0C0EEB4E0E0CFB00FC9E44714B95F803A003F1D80909EB0C02516850
:2026400071450ED0002109F80CA0C2F804E09160012202FA00F093F8082122EA000083F83F
:2026600008010637482F05F10605C7D1684BDFF8B8A11F68674B4FF000091B680293664BD7
:202680001B780393DAF80030002B00F0DA8293F80080B8F1000F00F0D482DAF804200299FE
:2026A0008A1A002A0DDB01F5FA72012101FA09F1CAF80420504A92F8080120EA010182F852
:2026C0000811039A002A00F0BC821AF8041C58780431C9B2484A002840F07382474830F9A3
:2026E00011104E48B0F8940100F1C805A94201DD9D7815E0C838814202DA9D786D420FE003
:20270000012303FA09F33C4991F8082122EA0303029A81F8083102F5FA73CAF8043090E239
:2027200092F8083143FA09F3DB0700F18A82002DCCBF0220012006F0FFFD08F1FF33132B68
:2027400000F27682DFE813F0140021002E003E0072007900DD004101A501DC010C02740213
:202760003E004D007900DD004101AF00130177013B7838461D44FA2DA8BFFA2525EAE57553
:202780003D7005F0C7F901201AE07B7838461D44642DA8BF642525EAE5757D7005F0BAF96B
:2027A00002200DE0FB7838461D44642DA8BF64251B4B25EAE575FD70196805F067F9032002
:2027C0002946CAE179790D2029446429A8BF642121EAE17179710BF0BBFEB8F10D0F00F02A
:2027E000278239790E2029446429A8BF642121EAE1713971B1E100BFA419002056020020BD
:20280000D2340020440200204802002040A10108940C0020A4340020D0000020A00200206E
:20282000DC1C002040020020801A0020B9790520294481F30801B9718FE1A74B1B681A7882
:20284000022A21D12846009310F058F8A34910F05DF9009B596A0FF09DFF0021019010F01C
:202860003FFA019A009B40B910469D4910F056FA019A009B10B19A4A00E000225A620F209C
:2028800011460BF079FE0AE099780F202944C829A8BFC82121EAE17199700BF059FEB8F136
:2028A0000F0F00F0C5818C4BD3F8008098F80030022B1AD1284610F021F8884910F026F953
:2028C000D8F820100FF066FF0021054610F008FA30B92846824910F021FA10B1804D00E07B
:2028E0000025C8F8205012205BE198F8011012202944C829A8BFC82121EAE17188F80110A6
:202900002BE1754B1B681A78022A21D1284600930FF0F4FF724910F0F9F8009B196B0FF0FB
:2029200039FF0021019010F0DBF9019A009B40B910466B4910F0F2F9019A009B10B1684A0C
:2029400000E000221A63102011460BF015FE0AE0197B10202944C829A8BFC82121EAE171AA
:2029600019730BF0F5FDB8F1100F00F061815A4BD3F8008098F80030022B1AD128460FF00F
:20298000BDFF574910F0C2F8D8F82C100FF002FF0021054610F0A4F930B92846504910F01C
:2029A000BDF910B14E4D00E00025C8F82C501320F7E098F80B1013202944C829A8BFC8212E
:2029C00021EAE17188F80B10C7E0434B1B681A78022A21D1284600930FF090FF414910F07E
:2029E00095F8009BD96B0FF0D5FE0021019010F077F9019A009B40B91046394910F08EF9E9
:202A0000019A009B10B1364A00E00022DA63112011460BF0B1FD0AE0997D11202944C82940
:202A2000A8BFC82121EAE17199750BF091FDB8F1110F00F0FD80284BD3F8008098F800309E
:202A4000022B1AD128460FF059FF264910F05EF8D8F838100FF09EFE0021054610F040F97C
:202A600030B928461E4910F059F910B11C4D00E00025C8F83850142093E098F8151014203F
:202A80002944C829A8BFC82121EAE17188F8151063E0114BD3F8008098F80030022B23D1BB
:202AA00028460FF02BFF0D4910F030F8D8F828100FF070FE0021054610F012F930B92846BE
:202AC000074910F02BF910B1054D00E00025C8F82850092065E000BFE01C00200000204188
:202AE0000000C84200007A4498F8031009202944C829A8BFC82121EAE17188F803102CE098
:202B0000AD4BD3F8008098F80030022B1AD128460FF0F4FEA9490FF0F9FFD8F834100FF03F
:202B200039FE0021054610F0DBF830B92846A34910F0F4F810B1A14D00E00025C8F83450F8
:202B40000A202EE098F80D100A202944C829A8BFC82121EAE17188F80D100BF0F9FC67E087
:202B6000954BD3F8008098F80030022B1DD128460FF0C4FE92490FF0C9FFD8F840100FF05F
:202B800009FE0021054610F0ABF830B928468B4910F0C4F810B1894D00E00025C8F840504C
:202BA0000B2029460BF0E8FC42E098F817100B202944C829A8BFC82121EAE17188F81710E6
:202BC000CBE7012834D198787E4B33F91110B1F5617F05DB40F633039942B8BF0B4601E099
:202BE0004FF46173B8F10C0F22D14FF49665A3F5617395FBF0F593FBF5F592F80931EDB20D
:202C0000AB4215D0032D94BF2B46022382F8093108FB03B36C4A03F2B673136004F094FF8E
:202C2000404629460BF094FC681CC0B206F084FB012202FA09F2654B93F808110A4383F873
:202C4000082109F10109B9F1040F0AF10C0A7FF419ADC5E43368D80510D55D4BDB786BB123
:202C6000D8F80030990709D52B8813F001090AD105F096FB012006F077FB04E0012006F031
:202C800083FB012300E000233A6852070CD55BB1012006F079FB2B889B0708D405F080FB7B
:202CA000022006F061FB02E0022006F06DFB2B88484A13F0030F4FF0100114BF516111619D
:202CC000D8F8002012F00A0F23D03A68D00609D559070AD4042006F047FB3F4B1A883F4B50
:202CE0001A8002E0042006F04FFB3B689A0606D52B885B0606D4402006F036FB02E040201F
:202D000006F042FB3B68580603D5334B1A88344B1A80D8F80030990608D43B681A0540F100
:202D2000D7804FF4807006F01FFBD5E02D4B1B789B0740F193802C4B1B78042B40F28E80DA
:202D40003B6813F400790ED02B88DD0679D4102006F00AFB202006F017FB2448011D0AF098
:202D60004DFC022268E0B5F8008008F010081FFA88F343B1102006F007FB1D4B4FF0010801
:202D800083F8009000E098463B6858054DD5194B1B685A89184BB3F900100029B8BF494234
:202DA00091422BDAB3F90230002BB8BF5B429342ACBF0023012322E0E01C00200000C8426F
:202DC00000007A4456020020940C0020A4190020800D0020000C0140040C0020740C002056
:202DE000701B00209A020020240B0020E81C0020F81C0020880C00205C0C00200023A3B112
:202E00002B8899061FD4202006F0AEFA7F4B80481A685B68011D436002600AF0EFFB7D4BE9
:202E20004FF0010883F800800DE02B889A060AD5202006F0A9FA0022764B4FF001081A70A2
:202E400001E04FF00008744D95F80A31B3B90E2006F050FA012385F80A310FE02B8803F076
:202E60003003002B3FF459AF102006F08DFA202006F08AFA674B00221A7003E0B8F1000F59
:202E80003FF44BAF00231A466449002050526449644D5052644905EB030E505200215951F8
:202EA0000232CEF80400CEF8081005F1280E503543F80E1059519E441D44042ACEF8040047
:202EC000CEF808106860A96003F11403DCD124E74FF4807006F058FA544A53791546082B0D
:202EE00001D00E2B02D1402006F04EFA33685B0540F1898095F81C321BB9237813F0040FC2
:202F000002E03B6813F4002F0BD0434B002283F884213C2008F050FA002874D006F044FA0D
:202F2000F7E70DF0A3FA0DF009F86CE0B9F1000F02D07E2B3FF4EFAA95F8CD30972B05D1AD
:202F40003B4B4FF4C8721A80FFF7E7BAA72B06D1384B1A7842F004021A70FFF7DEBA00220D
:202F6000BB2B059201D1022303E0B72B04D14FF6FE73ADF816301EE0BE2B01D1022303E0E1
:202F8000BD2B2FD14FF6FE73ADF8143013E0012002E0022000E003205FFA80F909F1FF3391
:202FA0008BF8B43709F00EFE0AF0CCFB484606F0C3F9FFF7B2BAD8F80030BDF81410B3F8B7
:202FC00058200A44A3F85820BDF81610B3F85A200A44A3F85A2008F0CFFE002385F8CE3052
:202FE000FFF79BBA792B04D1134BDA7822F0010206E07A2B7FF491AA0F4BDA7842F001022E
:20300000DA70FFF78ABA07B0BDE8F08FE01D0020F01C0020F81C0020A4190020C8340020DB
:203020008C0C0020B01A0020900C0020A0020020AE0B00209A020020C4150020C44A2DE9BE
:20304000F04FC44BD2F800E0B3F90600BEF80A308FB098420FDBB0F5FA6F9EF8077007DAD7
:20306000C21A5743A3F5FA6397FBF3F7643703E0C7F1640700E06427B74B0021B3F89421DA
:2030800093F95E310292B54A9BB2D2F800C0039364460A46AF4B029D31F903B0C5EB0B03E7
:2030A00003F2F31640F2E635AE4203D8002BB8BF5B4201E04FF4FA73022A4FF06406A84D60
:2030C0002ED09CF81181B8F1000F04D04345CCBFC8EB0303002393FBF6F86FF0630A35F8DC
:2030E00018900AFB083A08F1010835F918800FFA89F5C5EB080505FB0AF595FBF6F5A9446E
:20310000984D21F805900EEB02052D796B43964D93FBF5F364339BB27B4393FBF6F630E043
:203120009CF81281B8F1000F04D04345CCBFC8EB0303002393FBF6F66FF0630905EB46086A
:2031400009FB063A05EB4606B8F90E80B6F91050844EC8EB050505FB0AFA039D9AFBF9FAE6
:20316000C8EB0A0808FB05F8A6F804809EF8065083EAE376A6EBE3766E437B4D96FBF5F6D7
:2031800064360CEB020898F80190754B06FB09F94FF0640803F11C0599FBF8F902F80590DC
:2031A00094F80B9003F11F0506FB09F999FBF8F902F8059094F8159003F1220506FB09F66D
:2031C000022A96FBF8F656551D4616BF253383F82780D754029B634E9B4502DA735A5B4248
:2031E00073520231062902F1010204F101047FF451AF594CB4F89631984205DBB0F5FA6F65
:20320000A8BF4FF4FA6000E01846C01A4FF47A725043C3F5FA63B0FBF3F34FF0640E93FBEB
:20322000FEF205EB42016FF0630000FB0233098D05EB4202B2F92A000AB2821A534393FB5E
:20324000FEFE4A4B71441B88F1805906454F3ED5474B1888424BB3F84030C01A00B20FF0A9
:203260004DFB44490FF09EFB804602F06FFD8146404602F0F7FC8046B7F902000FF03EFBDB
:203280008246B7F900000FF039FB494683460FF089FB41460346504601930FF083FB019B95
:2032A000014618460FF074FA0FF042FD4946388050460FF077FB4146814658460FF072FB18
:2032C000014648460FF066FA0FF032FD78802A4B1A689A4612F0020F00F09780274B6A6C5B
:2032E0001B6845F207219A1A8A421D4F40F38D807B6406F019FB224BDFF890801A78994612
:20330000032AB8F8003043D10A2B4DD90023282089F8003004F071FC06F006FBB7F84800C6
:2033200005F092FF174B18491B68DA7890FBF2F0421C082A28BF08220A7059791B7992B23D
:2033400051435A43A7F84A10A7F84C202CE000BF940C002056020020A00200202C0B00201C
:20336000301B00205C0C00200CFEFFFF48020020040C002035FA8E3CDC000020AC340020C3
:20338000241E0020C41D002058000020C81D00200A2B09D80323B54A89F8003000231370BB
:2033A000A7F84A30A7F84C3099F80020B04B012A0DD002D3022A1ED027E0B5F84A20B8F868
:2033C00000309A4221DD012389F8003011E0B8F80020B5F84C10914202DD02221A7011E0F3
:2033E000A449B1F84A1001318A4202DD00221A700BE0082007E0B5F84C30B8F8002001332D
:203400009A42E0DC072005F075FFDAF800703A0577D5994B296D1A68964BC1EB020A45F2EB
:2034200007218A456DDD1A65944AB6F90690D2F80080B4F84E1198F80A20A9F57A79012ADE
:203440008F4E03D046D3022A23D045E093F86520596D03EB4202B2F86800082291FBF2FE9F
:2034600080B2CEEB0101014491FBF2F2A3F8700092B2596540F6E4435343B8F808004FF4AF
:203480007A72C0EB13335343B8F9062093FBF2F321E07C4BB8F808B01B78C6F800B05B07DC
:2034A0001AD579480CF088FB20B917F0100F18BF4FF0000909FB09F2322392FBF3F399441B
:2034C000B8F906304FF47A7203FB09F393FBF2F35B4400E0002333603368D5E91E0103FBBE
:2034E0000AFA4FF47A739AFBF3FA10EB0A0041EBEA710023C5E91E01644A0FF05FFC644BE3
:203500001860644B1A68984612F4805F26D03E0621D5614B1B7898071DD5604B19780429D6
:2035200019D900235E4E05229A55981C1E440A27122BC2B2777004D0B1EB520F0346F1D8F2
:2035400000E014222A44322382F87F30FF2382F880300F2000E00A2005F0CCFED5F89820A0
:20356000444E002A4ED04F4BD6F89C1018689946814247D896F8A010B6F8A2305268C9B922
:20358000012786F8A070D35C03B3384604F07AFB86F8A47005F06EFEB6F8A230B3B9D6F8FC
:2035A00098301B78053BBB4210D804F000FBC6F8A8000BE0002786F8A070D35C33B1384605
:2035C00004F060FB86F8A47005F054FED5F89820B5F8A2105268274B525CFE2A03D10022E7
:2035E000A3F8A2200EE0FF2A02D105F067FE09E0D9F800000A2606FB02020131C3F89C2092
:20360000A3F8A2101F4E3378590703D5264B08225A6162E0D8F80020D2075CBF43F001035A
:2036200033701D4B1B781B0703D4337823F0010333701E4B1B685F0702D51D4A128862B949
:203640001C4A12880AB1980705D41B4B1B88003318BF012300E0012383B3022385F8A43050
:20366000337823F0010333702EE000BF58000020241E0020301B0020AC340020C41D0020D2
:20368000D01D0020D434002026040020407E0500D41D0020440200209A020020240B002066
:2036A000B01B0020A4340020000C014040020020CC340020AE0B0020CE3400203278D107DB
:2036C00058BF022385F8A43004F071FAD5F8AC30C01A002801DB05F0CDFD0CF0C7FEBA4BF2
:2036E0001A78002A78D0D5F8B030002B00F0D186D5F8B000B54C04F072FB002800F0C98661
:20370000D4F8B00004F066FB092801D03F2855D14FF00008D5F8B460AD4F44462EB1AD48C7
:203720003968324612F058FE10B9B84604B93C46A94B10379F42F1D304B3D4F800E0D8F8FF
:2037400000C0D5F8B430A1481EF803701CF80310B94213D15A1C59B92D2B09D8C0F8B42033
:2037600003442027024483F8B87082F8B81005E02B4483F8B870C5F8B420E2E7D5F8B4308E
:203780000BB1444510D0954805F09EFE444507D854F8100B05F098FE092005F08EFEF5E7B6
:2037A0008F4805F091FE0026D5F8B4309E429FD2884B985D05F081FE0136F5E7D4F8B43087
:2037C000002B40F09286042840F0898604F1B8000CF0BAFA00F05DBE824F97F84A30012B9D
:2037E00040F05286DFF80082DFF818923B68C8F80070C9F80030DFF80CA25246106804F09A
:20380000EEFA002800F03386DAF8000004F0E2FA754A8346136893F848201AB924283BD12C
:20382000012236E0012A04D14D280CBF022200222FE0022A04D13C280CBF0322002228E03B
:20384000032A09D140284FF0000222D81A71DA715871987104221CE0042A08D19A7983F85F
:20386000490080EA020B83F806B0052211E0052A39D159791A799142997906D94140997152
:20388000511C1971134418722DE081420CBF0622002283F8482026E03278544B520722D4EA
:2038A000BBF1230FDAF8002012D14748012101704F48C5F8B020C5F88021019305F004FE26
:2038C000474805F001FE019B1A7842F002021A70D5F884311B785B4505D1464A464B1A6051
:2038E000464A474BDA60404A136893F848A0BAF1060F80D193F8490000F0ACFE002840F01D
:20390000AF85394B1A6892F849B0BBF14C0F00F0928400F2C580BBF1350F00F04C8242D8DE
:20392000BBF12B0F00F05E8424D8BBF1250F00F0348405D8BBF1230F00F03C8100F0CCBD6A
:20394000BBF1270F00F03084BBF1290F40F0C48505F0A0FDA4F87E0105F09CFDA4F880012C
:2039600005F08DFD84F8820105F094FDA4F8840100F073BDBBF12F0F00F0F48405D8BBF127
:203980002D0F00F0338400F0A7BDBBF1310F00F0FE84BBF1330F40F09F8505F070FD84F872
:2039A000900100F05ABDBBF1410F00F095843DD8BBF1390F00F0058426D8BBF1370F00F008
:2039C000988400F089BD00BFD2340020301B00207CA10108E81B00205CA3010898BA010899
:2039E0009DBA0108181C00207C1E0020D4340020CDBA0108EFBEADDEF04F00200400FA0507
:203A000000ED00E0801E0020BBF13C0F00F01381BBF13E0F40F0608505F031FD84F8DE0114
:203A200005F02DFD84F8DD0100F017BDBBF1440F00F0E18427D8BBF1430F40F04D8505F001
:203A40001EFD0023A360607105F02EFDA3681843A06005F014FD84F88E0105F01BFDA4F814
:203A6000580105F017FDA4F85A0105F013FDA4F85C0105F00FFDA4F87E0105F00BFDA4F83A
:203A8000800100F0EABCBBF1480F00F01E83BBF14A0F40F0218505F0FDFCA08100F0DDBC08
:203AA000BBF1D10F00F03C8328D8BBF1CC0F00F0AA8113D8BBF1C80F72D005D8BBF14E0F93
:203AC00000F0C68300F008BDBBF1C90F00F00083BBF1CA0F00F0BE8000F0FEBCBBF1CE0F1B
:203AE00000F0E582C0F0DA82BBF1CF0F00F0FA81BBF1D00F00F0C78200F0EEBCBBF1D90F7C
:203B000000F0B08210D8BBF1D30F43D02FD3BBF1D40F00F02C82BBF1D60F08BF4FF000092B
:203B200000F01A8200F0D8BCBBF1F20F00F06F8213D8BBF1EF0F40F0CF84DFF88893D9F80C
:203B400000A005F0A7FCAAF85A00D9F8009005F0A1FCA9F8580000F080BCBBF1F30F00F07B
:203B60004E84BBF1FA0F00F0AC8200F0B5BC337803F0040303F0FF09002B40F06E8405F05D
:203B80007EFC022884F8B40740F28382C84B83F8B4977EE205F07EFCC64B188000F05DBCB9
:203BA00092F805904FEA5909B9F1120F1CD84FF0000A1DE005F063FC132815D8DFF804A34C
:203BC00000F11E0BDAF8003003EB8B0B05F057FCB94B0BF1010903F5A872197A814200F09B
:203BE000CB800C339342F8D107F0E2FB00F035BCCA4507D205F04EFC05AB23F81A000AF1E1
:203C0000010AF5E700234B45AC4A06DA05A931F8131022F813100133F5E709F1FF3902EBCE
:203C200049032232934203D0002123F8021FF9E70122A34B43E2DFF88C92D9F800A005F06E
:203C40001EFC8AF80000D9F80030187804F096FB00F003BC9B4B1A6899461278022A6ED1C7
:203C60004FF00009DFF85CA209F1080BDAF80030019305F004FC0EF03DFE93490EF046FF37
:203C8000019B43F82B00DAF800B005F0F8FB09F10A030BEB830B0EF02DFE8C490EF036FFFC
:203CA000DAF80030CBF80400019305F0E8FB0EF021FE87490EF02AFF09F10E0B019B09F112
:203CC0000109B9F1030F43F82B00CBD1B9F1070FDAF800B01AD105F0D2FB0EF00BFE7A4963
:203CE0000EF014FFCBF84400DAF800B005F0C7FB0EF000FE74490EF009FFCBF84800DAF8D7
:203D000000B005F0BCFB8BF84C0012E005F0B7FB0BEB09035870DAF800B005F0B0FB0BEBFD
:203D20000903D872DAF800B005F0A9FB0BEB0903587509F10109B9F10A0FC7D18DE34FF035
:203D4000000AD9F800B005F09AFB0BEB0A035870D9F800B005F093FB0BEB0A03D872D9F861
:203D600000B005F08CFB0BEB0A030AF1010ABAF10A0F5875E5D170E31B788BF8013005F038
:203D80007EFB89F8010005F07AFB89F8020005F076FB89F80300DAF800004E4BC5F8B00178
:203DA00000217930C5F8AC3103F0F0FE4A4B80F00100187051E305F062FB0B283FF614AF7F
:203DC0000AFB00FB3F4B0BF1C80B1B689B4405F056FB03283FF608AF8BF8060005F04FFB03
:203DE0008BF8010005F04BFB8BF8020005F047FB8BF8030005F043FB8BF8040005F03FFBD9
:203E00008BF8050029E35379092B7FF6EDAE3348D0F8009005F033FB304A89F80000D2F843
:203E2000009005F02CFB89F8010005F028FB2B4A6428A8BF64201368187105F020FB274ACB
:203E40006428A8BF64201368587105F018FB234AFF28A8BFFF201368987105F010FB1F4B97
:203E6000642828BF6420D3F8009089F8070005F006FB89F802001948D0F8009005F0FFFA48
:203E8000164A89F80300D2F8009005F003FBA9F80A00134803685B790A2B40F2DE820F4B8B
:203EA000D3F8009005F0EBFA89F80800D5E200BFA0020020740C00205CA30108B81C002070
:203EC0001D0200202C0B0020000020410000C84200007A44E003002018000020940C002028
:203EE0007C1E002005F0D6FA6FF4AF6E00EB0E039BB2C62B98BFA4F8940105F0CBFAA4F8AB
:203F0000400105F0C7FAA4F8420105F0C3FAA4F8440105F0BFFAA4F8D60105F0B0FA84F8FC
:203F2000EB0105F0ACFA05F0AAFA84F8EC0105F0A6FA84F8830105F0A2FA84F8900105F0D0
:203F40009EFAD34BD3F8009005F0A4FA00EB80004000A9F8560034E105F09CFACD4B23F848
:203F6000090009F10209B9F1100FF5D175E253790F2B7FF439AE05F082FA072881463FF651
:203F800033AEDFF80CA3DAF800B005F083FA0E2303FB09F90BEB0903A3F81901DAF800B05C
:203FA00005F078FA0BEB0903A3F81B01DAF800B005F070FA0BEB0903A3F81D01DAF800B0C3
:203FC00005F05DFA0BEB090383F81F01DAF800B005F055FA0BEB090383F82001DAF800B012
:203FE00005F04DFA0BEB090383F82101DAF800B005F045FA0BEB090383F82201DAF800A01E
:2040000005F052FA0AEB0903C3F8230125E205F036FA0F2881463FF6E7AD05F030FAC9EBB9
:20402000C90904EB090383F8D00003F1D00905F026FA89F8010005F022FA89F8020005F07B
:204040001EFA89F8030005F01AFA89F8040005F016FA89F8050005F012FA89F8060004F02F
:20406000E3F8FAE105F016FAA4F8480105F012FAA4F84A0105F00EFAA4F84C0105F00AFAD9
:20408000A4F84E01E9E13378590700F1E6810EF01DF808F097FD09F055FBDEE133785A0755
:2040A00000F1DB817C4B4FF4C8721A80D5E133785B0700F1D281794B1A7842F004021A70B6
:2040C000CBE133785807E4D506E20AF0AFF9C4E105F0D5F9714B1A7810B142F0020201E059
:2040E00022F002021A7005F0CAF96D4BDFF8C491187005F0D9F9C9F8000005F0D5F9C9F8F0
:20410000040005F0C7F9674B188005F0C3F9664B188095F8B43143F0020385F8B4319CE119
:2041200005F0ADF9019005F0BFF9834605F0BCF9824605F0B9F9814605F0ACF905F0AAF9CB
:2041400005F09DF9019B9BB91020C5F8B8B1C5F8BCA105F019F9514B1A7842F001021A7080
:20416000B9F1000F00F07981504BC3F8009074E1102B40F07281C5F8C0B1C5F8C4A1B9F109
:20418000000F02D0494BC3F8009049480223011D85F8C83109F032FA5FE1A06005F084F93E
:2041A000A3681843A06058E105F074F9A4F8580105F070F9A4F85A0105F06CF9A4F85C0161
:2041C0004BE105F05CF984F8780105F058F984F87C0105F054F984F87B0105F050F984F841
:2041E0007D013AE105F04BF9607136E105F047F984F88E0105F04EF9A4F8980105F04AF91C
:20420000A4F8940105F046F9A4F8960105F037F9D8F8003084F88F015B79DFF89C90082BCB
:2042200040F21B8105F036F9A9F89A0105F032F9A9F89C0111E105F022F984F8D40105F0AA
:204240001EF984F8D50105F025F9A4F8D60104E192F805B00323BBFBF3FBBBF1120F3FF67F
:20426000C3ACDFF854904FF0000ADA4580F0F58005F005F989F89E0105F00CF940F2ED2378
:2042800098421BDD40F6CA039842A8BF184617E02C0B0020B20D0020AE0B00209A020020E8
:2042A000240B0020DA1D0020D81D00204C020020F01C0020E01D0020A002002040F2EE20CA
:2042C000A0F2EE20192390FBF3F089F89F010AF1010A09F10209C8E7814605F0D0F804EB46
:2042E000090309F10109B9F1080F83F88601F4D1B3E053794FF0070AB3FBFAFACAEBCA0254
:204300009B1A13F0FF0F7FF46FAC5FFA8AFABAF1000F00F0A28005F0B2F85FFA80FB4FFAE4
:204320008BF003F073FB0AF1FF3A5FFA8AFA814600283FF459AC80F800B005F0ABF8A9F808
:20434000020005F09CF889F8040005F098F889F8050005F094F889F8070005F090F889F83B
:204360000600D4E7DFF8E89209F1400A05F092F8A9F8AC0205F083F889F8AE0205F07FF80C
:2043800009F1040989F8AB02D145EFD165E005F076F81F283FF628ACD8F800305B79082B13
:2043A0007FF422AC00F18A0A05F074F804EB8A0A00F03F00AAF8060005F06CF8BAF806204B
:2043C000800100F4FE531343AAF8063005F057F800018AF8040005F052F89AF8043000F029
:2043E0000F0018438AF8040005F049F88AF8050001F014FE31E0012385F8C9312DE005F05F
:204400003EF8FF28824609D103F08BFA012005F033F895F8CA0104F0E7FF21E095F8CA2139
:204420009042BFF4E1AB002005F026F804F0EEFFD8F80020106803F0BDFCD9F8000004F07E
:20444000B3FF50460CF0D4FC0A2003F0D6FB0BF075FDD8F8002082F849B0002005F00CF871
:2044600004F0D4FFD8F80030002283F8482095F8C9314BB1386803F09DFC0BF027FC03F0B0
:20448000C6FB5F4A5F4BDA605F4B4C379F427FF4A4A95E4B1B68990616D55D4BD5F8CC21E8
:2044A0001B689A1A002A0FDB5A4A1278042A0BD9594A03F5123303F5F873C2F8CC31574BD5
:2044C000DA6882F01002DA60554B9B68002B00F09380544898478FE006F06AFFC0E70C28E7
:2044E00025D1514804F0F0FF1FE00C28F9D00A2821D1494C4D4804F1B80604F0E5FF3046FF
:20450000232111F054FF10B1801BC4F8B400D5F8B430BBBB464800213022C5F8B43011F06D
:2045200013FF44480378002BB3D043480FE07F2814D1FFF7DDB80D28DBD07F280BD1013B84
:20454000C4F8B430002223443C4883F8B82004F0BBFFFFF7CDB82F2B3FF6CAA8A0F120027E
:20456000D2B25E2A3FF6C4A813B920283FF4C0A85A1C2B44C5F8B42083F8B80004F09DFFA6
:20458000FFF7B6B8591E705C234A202801D10B46BFE7C2F8B4301344002283F8B820284B19
:2045A000284CD3F800A0D4F80090DFF86C80484611F00AFF08F1B8070646494638463246DC
:2045C00011F00AFF204B38B908EB060292F8B82052445278520703D010349C42E3D306E0CE
:2045E0009C4204D2701CE3683844984702E0174804F06AFF00238DE70FB0BDE8F08F00BFFE
:204600000400FA0500ED00E0B01C002040020020AC340020240B0020301B0020000C014075
:20462000300B0020001D0020A2BA010866C80108E81B0020D23400209DBA0108C9BA010811
:20464000600000207CA101085CA30108ADBA0108A00200202DE9F04F4B28ABB0044600F01D
:20466000FB8500F2B480302800F08A8651D8222800F0508423D8032800F05E8114D80128FB
:2046800000F04E81022840F0FC86042004F0F4FE432004F0A9FE4C2004F0A6FE462004F019
:2046A000A3FE4C2000F00BBE042800F04F81052840F0E7861A2004F0DFFE002459E12828C5
:2046C00000F0988515D8242800F07F85262840F0D886B44C062004F0CFFEB4F8580104F0E4
:2046E0009BFEB4F85A0104F097FEB4F85C0100F0C4BE2C2800F091852E2800F00B862A2893
:2047000040F0BF86012004F0B7FEA64B587900F0D6BD3D2800F038831ED8362800F0E0855C
:204720000BD8322800F0C585342840F0AA86482004F0A2FE002500F00DBC3A2800F0D482C4
:204740003B2800F0E083382840F09B86042004F093FE944C00F03FBD452800F06A8627D831
:20476000402800F0AF85422840F08B868D4C102004F082FE607904F037FEA06804F055FE34
:2047800094F88E0104F030FEB4F8580104F044FEB4F85A0104F040FEB4F85C0104F03CFE31
:2047A000B4F87E0104F038FEB4F8800100F065BE472800F01B86C0F00886492840F061869E
:2047C000022004F059FE774B988900F056BE702800F00F8357D8692800F066822AD8652844
:2047E00000F0008115D84D2800F04585642840F04886072004F040FEE72004F0F5FD694BA8
:20480000587904F0F1FD002004F0EEFD042000F01FBE672800F0CD8100F23A82122004F054
:204820002BFE614B00241B88B3F5806F94BF01250825A0E16C2800F04A8216D86A2800F05E
:2048400048846B2840F01D86052004F015FE574B188804F0E1FD564B188804F0DDFD554B37
:20486000187800F0010000F02ABD6E2800F0668200F29582062004F0FFFD4F4B186804F045
:20488000D4FD4E4B2EE2782800F0A08119D8742800F07C830BD8722800F0DB83732840F0DB
:2048A000F085082004F0E8FD012400F00BBC762800F02E8400F2B2832F2004F0DDFD404C96
:2048C00019E3A42800F04A8413D87C2800F0C385A02840F0D6850C2004F0CEFD394B186849
:2048E00004F0A3FD384B186804F09FFD374B00F06ABCF12800F0A681FE2800F05684F028C1
:2049000040F0BF85324C042004F0B6FD2368B3F85A0004F081FD2368B3F8580000F0ADBDF0
:20492000032004F0A9FD002004F05EFD204604F05BFD0E2000F0C3BC04F09EFD012004F058
:2049400053FD0B2004F050FD00F006BC062004F093FD412004F048FD462004F045FD4E209B
:2049600004F042FD412004F03FFD1A4B187800F084BD194B185D013404F036FD0B2CF8D118
:204980000024164B185D013404F02EFD082CF8D10024134B185D013404F026FD072CF8D18D
:2049A00000F06DBDA002002008000020521E0020541E0020E41C002050020020E40A002031
:2049C000C7A50108E8F7FF1FECF7FF1FF0F7FF1F2C0B0020D534002067AD010873AD010899
:2049E000CCBA01080B2004F047FDC24BC24C188804F012FD208880B204F00EFDBF4B1B68A1
:204A0000C3F3C000C3F38002800040EA4200C3F340021043C3F3401240EAC20003F01003B7
:204A2000184304F0F9FCB64BA4781A8812F0010F0CBF0020022012F0020F0CBF0021042130
:204A400012F0040F0CBF002310230393AD4B02F0080A1B6812F0400F03F0C00B03F480790C
:204A60004BEA0A0A0CBF0026202603F4805812F0100F4AEA090A019003F4005C0CBF0020B0
:204A80004FF400704AEA080A12F0200F029103F4804E0CBF00214FF480614AEA0C0A12F434
:204AA000807F049605900CBF00264FF4006603F4003003F400474AEA0E0A0796089003F451
:204AC00080364AEA070A06914AEA060A03F48021089E09914AEA060A099E03F400254AEAED
:204AE000060A03F480104AEA0505284303F000730343854812F4007F06780198C6F3800622
:204B000043EA0603029E43EA0003039843EA0603049E43EA0003059843EA0603069E43EA48
:204B20000003079843EA060343EA00030CBF00214FF4001112F4806F43EA01014FF00000CA
:204B40000CBF00234FF0806319430346A3420CD26E4A9D5C012202FA05F50D4218BF9A4013
:204B600003F1010318BF1043F0E704F05EFC684B93F8B407A3E3674BE05E023490FBF5F0D9
:204B800080B204F049FC062CF5D1634C208804F043FC608804F040FCA088604C04F03CFC10
:204BA000208804F039FC608804F036FCA08800F064BC102004F060FC0024594B185D0134EC
:204BC00004F012FC102CF8D100F059BC702004F053FC00260E247443524D01362B68234417
:204BE000B3F8190104F018FC2B682344B3F81B0104F012FC2B682344B3F81D0104F00CFC66
:204C00002B68234493F81F0104F0EEFB2B68234493F8200104F0E8FB2B68234493F82101EE
:204C200004F0E2FB2B68234493F8220104F0DCFB2B681C44D4F8230104F0F7FB082EC9D197
:204C400000F01DBC702004F017FC314C04F1700594F8D00004F0C8FB94F8D10004F0C4FBEA
:204C600094F8D20004F0C0FB94F8D30004F0BCFB94F8D40004F0B8FB94F8D50004F0B4FB12
:204C8000073494F8CF0004F0AFFBAC42E0D1F6E3102004F0F1FB0024234B185D013404F028
:204CA000A3FB102CF8D1EAE3134D0024A87F400000F0FE0004F0E0FBAB7F9C4280F0DF8302
:204CC0001A4B33F8140004F0A7FB0134F4E7184C062004F0D1FB208804F09EFB608804F02F
:204CE0009BFB144B1888C8E3042004F0C5FB124B69E200BF1C0C0020081D00204002002046
:204D00004802002044020020D43400200B1D0020A0020020D80B0020400B0020940200206D
:204D2000CA0D00202C0B0020680D002056020020B00A0020040C0020B80A0020072004F011
:204D40009BFBAB4B1888FF28A8BFFF20C0B204F04BFBA84B186880F3100080B204F05CFB5B
:204D6000A54B188C04F058FBA44B93F88321A44B2AB11B680A20584380F3100002E0186843
:204D800000F30F0080B278E39C4C022004F074FB94F8DE0104F028FB94F8DD018FE2994CD5
:204DA0000B2004F069FB23680025187804F01CFB23682646587804F017FB3368914C2B4471
:204DC0001879013504F010FB032DF6D12368D87904F00AFB2368987804F006FB2368D878D6
:204DE00004F002FB2368588904F016FB2368187A65E2854D1E2004F03FFB2B6800241B7865
:204E0000022B65D12B6804F1080253F822007F490DF0C8FD11F0A8FC80F30800C0B204F020
:204E2000E3FA2B687A4903EB8403D86A0DF0BAFD11F09AFC80F30800C0B204F0D5FA2B68FA
:204E400004F10E0253F8220072490DF0ABFD11F08BFC80F30800C0B2013404F0C5FA032CF4
:204E6000D0D1072C2B6821D1586C68490DF09AFD11F07AFC80F30800C0B204F0B5FA2B6836
:204E80006249986C0DF08EFD11F06EFC80F30800C0B204F0A9FA2B6893F84C000DF02AFD5E
:204EA00011F062FC80F30800C0B20BE02344587804F09AFA2B682344D87A04F095FA2B689A
:204EC0002344587D013404F08FFA0A2CC9D1D6E22B682344587804F087FA2B682344D87AD1
:204EE00004F082FA2B682344587D013404F07CFA0A2CEDD1C3E214F8010F002800F0BF82C6
:204F000004F072FAF7E7012004F0B6FA3E4B1B681878D4E1502004F0AFFA00243A4B04F192
:204F20001E021B680C2103EB82035D1C3A4A5B78013401FB0323187A04F056FA687804F05D
:204F400053FAA87804F050FAE87804F04DFA142CE4D194E206266E432B4BC8361B68013596
:204F60001E44B07904F040FA707804F03DFAB07804F03AFAF07804F037FA307904F034FABD
:204F8000707904F031FA0C2DE4D178E2002701240025194B9A78954222DA0333E95C002369
:204FA0001D4A03EB02089A5C8A4204D00C33B3F5A87FF5D112E0D8F8040011F005FA81469B
:204FC0000CB9264601E0074408E04E4506DAD8F80430985D04F008FA0136F6E70135D8E721
:204FE000002C00F04C82F8B204F046FA0024CFE7C81D0020D41D0020081D0020A0020020F2
:20500000D01D0020940C00202C0B0020000020410000C84200007A445CA30108C84D002402
:20502000A87804F029FAAB789C4280F02882C54BE05C0023C44A99189A5C824204D00C3323
:20504000B3F5A87FF6D102E0087A04F0CDF90134E9E7BE4C162004F00FFAB4F8940104F025
:20506000DBF9B4F8400104F0D7F9B4F8420104F0D3F9B4F8440104F0CFF9B4F8D60104F0D8
:20508000CBF994F8EB0104F0AFF9002004F0ACF994F8EC0104F0A8F994F8830104F0A4F9D0
:2050A00094F8900104F0A0F9002004F09DF9A84B1B68B3F956000A2390FBF3F080B204F063
:2050C000ABF988E0E0B2013404F08EF9092CF9D1D5E1102004F0D0F99E4B9F4C187800F08C
:2050E000020004F081F99D4B187804F07DF9206804F09BF9606804F098F9994B188804F089
:205100008BF9984B188804F087F98D4B588CB4E104F0B5F90646122004F0AEF90EB9924B64
:2051200002E0102E03D1914B1D685C6801E000242546304604F058F9284604F076F92046F4
:2051400004F073F98A4B186804F06FF9002004F063F9002004F060F90020B0E0784D0024C8
:2051600095F824002E4680000130C0B204F084F995F8240004F038F996F824309C4280F070
:205180007E817C4D285D04F02FF905F11003185D04F02AF905F12003185D303504F024F90D
:2051A000285D04F021F90134E6E7082004F064F9002004F031F9002004F02EF9002004F054
:2051C0002BF9002059E1186842E1042004F054F95E4B98683CE194F8780104F005F994F800
:2051E0007C0104F001F994F87B0104F0FDF894F87D0164E0554C072004F03EF9B4F87E01E7
:2052000004F00AF9B4F8800104F006F994F8820104F0EAF8B4F884012FE14C4C0C2004F099
:205220002BF994F88E0104F0DFF8B4F8980104F0F3F8B4F8940104F0EFF8B4F8960104F0ED
:20524000EBF894F88F0104F0CFF8B4F89A0104F0E3F8B4F89C0110E13C4C042004F00CF99F
:2052600094F8D40104F0C0F894F8D50104F0BCF8B4F8D60101E1324E3F4CB07F002500EB68
:205280004000C0B204F0F8F8B37F02349D4280F0F68014F8020C04F0A7F814F8010C01354F
:2052A00000EB800000EB800000F2EE2004F0B4F8EAE7012004F0E0F8244B93F8900104F03B
:2052C00093F8DCE0082004F0D7F800241F4B234493F88601013404F087F8082CF6D1CEE044
:2052E000174B1A4C93F8650004F12805C0EBC000C0B204F0C1F894F8F20100231F4AD25C11
:20530000904200F0C0800C333C2BF7D10834AC42F1D1B4E0402004F0AFF80C4C04F1400510
:20532000B4F8AC0204F078F894F8AE0204F05CF8043494F8AB0204F057F8AC42F0D19EE04A
:20534000081D00200B1D00205CA30108A00200202C0B00209A020020E01D0020240B002077
:20536000DA1D0020D81D0020E81C0020F01C00204C0200202D1D00203E040020701D0020CA
:20538000E02004F079F84D4C04F18005B4F82E02043400F03F0004F03FF8B4F82A02C0F39C
:2053A000861004F039F894F82802000904F01CF894F8280200F00F0004F016F894F82902FD
:2053C00004F012F8AC42E1D159E03D4C0D2004F053F80BF0B3FC04F007F8208804F025F8AB
:2053E000E06804F022F800F033FF31E004F05CF80446842004F040F8204604F016F8304BDF
:20540000DD6804F18003AB428CBFC4EB0505802509F0C6F820462A460AA90BF0C3FC00241B
:205420000546AC422BDA0AA9085D03F0DDFF0134F7E7132004F020F80024224B185D0134BA
:2054400003F0D2FF0B2CF8D1002003F0EEFF002003F0EBFF13E0194C082004F00DF8B4F866
:20546000480103F0D9FFB4F84A0103F0D5FFB4F84C0103F0D1FFB4F84E0103F0CDFF0120C3
:2054800018E0002016E003F0AFFFB4F8F40103F0C3FF94F8F60103F0A7FF94F8F70103F074
:2054A000A3FF94F8F90103F09FFF94F8F80103F09BFF2BE72BB0BDE8F08F00BFA00200208F
:2054C0002800002067AD0108016B0346C26810B5406941B1196C541A005D013918BF0A4677
:2054E000C0B21A6410BD196A405C0131914228BF0021C0B2196210BD036B13B15A68036CA6
:2055000001E0C269036A9A4237BFC068C3EB02008018C3EB0000C0B27047436B13B190F8FF
:2055200044007047826A436AD31A584258417047436A816A02698B4238BF9B185B1A416B65
:2055400021B149680B44511E8B4203D2013AD31AD8B270470020704743799B070AD5436A3E
:205560008269D154426A03690132B2FBF3F103FB112343627047437903F0020303F0FF0209
:2055800043B10369416A826A013BDBB2881A23EA0000704710467047437913F0010307D03E
:2055A000C368C169026A013B881A1840C0B2704718467047437910B513F0010304460DD007
:2055C000FFF7EAFF58B1226A6369985CE3680132B2FBF3F103FB1123236210BD184610BDD9
:2055E000426A806A131A58425841704741717047334A10B5136C90681944081A40F68C2378
:2056000098429160D060516013463CD9127893F945108A420BD1111F082908D893F846103B
:20562000182901D8013103E083F8442002E0002183F8461093F944108A421CD1204991F8FD
:205640004710C1B1002191421E4806DA03EB8104246920F811400131F5E7511E00EB410134
:205660001630814203D0002421F8024FF9E7164908780130087083F84520002201211A70AA
:2056800083F8471010BD92F84710B9B1A0F2EF2440F2DA518C4208D811780B2905D80B1DAE
:2056A0000131117042F8230010BD002283F84720991804320020302A0861F9D110BD00BFE9
:2056C0001C140020200200201E02002010F80A3C0133DBB20A2B00F80A3C07D910F8131C5F
:2056E000034A002322F8113000F80A3C704700BF20020020024B1A6C01321144196470475A
:205700001C140020024B53F820301B681980704744150020074BA1F57A7153F820304FF454
:205720007A701A681B894B4393FBF0F39BB21380704700BF441500202DE9F04F724BDFF8A2
:20574000D0811A68B8F8006089B0C6EB22135B437600C6EBE202B8F902601B135643B8F913
:205760000420039153439B1303EBE62606EB860380331B120593654BB6F5FA3A1B684FEAF6
:20578000E67747F1FF3BC8F818600493AAFB0A670AFB0BF3B8F8102007EB43070692B8F8EE
:2057A0000E30B8F908200793D3170AFB03F102FB0B11AAFB02238146B8F90A000B44C117C9
:2057C0001D0306FB01F300FB0733A6FB00011403194445EA1255020A42EA016212194FEAD4
:2057E0002123B8F8064043EB05030032A2FB040143F5004304FB03114B10CA170093019275
:20580000DDE900231343B8F80CC06FD0069A002012B2D3177343A6FB024502FB0733079AAA
:205820001D4412B2D3170AFB03F3AAFB026702FB0B331F4472047B04A41843EAD63345EB9B
:205840000305049B0019C3F580164FEAE6714FEAC17343EA56034FEAC6720FFA8CF64FEA82
:20586000C60141EB0501121A63EB010340F63544A2FB040104FB0311DDE900230DF09EFACF
:20588000B8F916404B1304FB03F6420B42EAC142E51702FB0566A4FB02456343354402FBC9
:2058A0000535A4FB02232B44540E44EAC314B8F9142024184FEA636545EB01055143D3173E
:2058C00000FB0313A2FB00011944C20C42EA413212194FEAE143B8F912404FEA122043EB2B
:2058E000050340EA03602201024400E00022B9F1000F02D0120AC9F80020039A0AB1059B28
:20590000136009B0BDE8F08FD41F0020D01F0020D02C0020704770478C46654B65492DE945
:20592000F04F1B684C899846220200234FF00009B8EB020869EB03098A88002716040A8970
:2059400089B0A2FB084502FB0955E20942EA4562B4184A884FEAE5134FEAC236CA8847EB87
:205960000305CDE90645A2FB084502FB0955220A42EA056216EB020A8A894FEA2523A8FBD6
:20598000024502FB09554FEAD4524FF0000742EA452247EB030B12F5FA664FEAE55343F1E1
:2059A0000007CDE90467B6F5FA6F77F10007019060DAA2FB026702FB03F107EB410705211A
:2059C000A6FB014501FB0755DDE9066769104FEA3400361A67EB0107CDE90667DDE90401D7
:2059E000A608354C46EA8576AF104FF0FF35BAEB060A6BEB070BA042A94128DADDE90667FD
:205A000040F6AC5412194FF0000543EB050302FB03F1A2FB02236FF0060403EB41035142CA
:205A200004FB0311A2FB044536190D444FF00B0147EB0507A2FB014501FB0355CDE90667EA
:205A40006D104FEA3404BAEB040A6BEB050B08FB09F3DDE90401A8FB088909EB43094FEAC8
:205A6000D87242EA49024FEAE973801A61EB0301CDE90401114B019E1A68A2FB0A4502FBC5
:205A80000B55620D42EAC5226B15DDE90645121B63EB0503D40B44EA434406B13460BCF184
:205AA000000F02D0049FCCF8007009B0BDE8F08FD81F00207C2C002024FAFFFFDC1F00203B
:205AC000324B2DE9F0411C88314B0A265A89B3F91250A41A1A89ED025443B3F91420E41303
:205AE000224495FBF2F22244DA615643A2F57A6202FB02F4B3F90480B3F902C0B3F90E7064
:205B000002FB0CFC02FB08F2B3F90C802413674304FB08F4241404EB62320232DC88921080
:205B200002F50042B3F920506243B3F900304FEAEC2404EBE72404EB8304AC40154B023454
:205B40001B68D20BA3EBA4044CF250332B41634355BF5B00B3FBF2F3B3FBF2F35B001A12C0
:205B6000524340F6DE3462430B4C08365C43241404EB224202F6CF62361103EB221300B1A0
:205B8000036001B10E60BDE8F08100BFE41F0020902C0020E01F002043E3FFFF13B50C4B4C
:205BA00004465B681B20022101AA984770B19DF804209DF8053043EA022303F54E5310331E
:205BC0004FF48C7293FBF2F32333238002B010BD682C002037B5104B04465D6818780621D8
:205BE0006A46A847A8B19DF800209DF80130012043EA022323809DF802209DF8033043EA70
:205C0000022363809DF804209DF8053043EA0223A38003B030BD00BF682C002013B5104B4E
:205C200004465B683B2006216A469847A8B19DF800209DF80130012043EA022323809DF8C7
:205C400002209DF8033043EA022363809DF804209DF8053043EA0223A38002B010BD00BFEF
:205C6000682C002070B504460DF062F82030402857D820462C490DF051F828B120462B49EF
:205C80000CF086FD0446F4E7204629490DF028F828B1204625490CF07DFD0446F4E72046BD
:205CA00024490DF03BF830B1224920460CF070FD014620480AE020461F490DF011F840B1CE
:205CC0001C4920460CF066FD01461B480CF060FD0446214620460CF065FE05462946204601
:205CE0000CF060FE1549064628460CF05BFE14490CF04EFD014628460CF054FE11490CF0E0
:205D000049FD014628460CF04DFE0F490CF040FD014630460CF046FE014620460CF03AFDD3
:205D200070BD002070BD00BFDB0F4940DB0FC940DB0F49C0DB0FC93FDB0FC9BF9A7C2E36F3
:205D4000FAAF4F393587083CA4AA2A3E08B503490CF020FDBDE8084084E700BFDB0FC93F31
:205D600010B50CF0CBFD002104460CF0D7FF08B1204601E004F1004005490CF0C7FE0549CB
:205D80000CF010FEFFF7E2FF034B186010BD00BF8096184B35FA8E3C3C00002010B50C4CE5
:205DA00023789B0713D50B4B1B78042B0FD90A4A0A4B1068526818605A60FFF7D1FF084B98
:205DC0001A88084B1A80237843F00103237010BD9A020020240B0020E01D0020E81C0020B6
:205DE000040C0020142F0020024B9A6822EA000098607047A00200200A4B1A8801321A8080
:205E0000094B1A6801321A60084B1A88013292B2202A04D100221A80054B1A8801321A80F9
:205E2000704700BFD6120020DC120020D8120020B4300020334B344A1B68126810B51A6090
:205E4000324A11685960516892689960DA60304A116819615168926859619A612D4A1168E9
:205E6000D9615168926819625A622B4A11881985518859859188D2889985DA85274A1188A1
:205E800019865188598692889A86254A1188D9865188928819875A87224A117800228A42B3
:205EA00007DA214C03EB420034F8124001328487F5E71E4A1288A3F864201D4A1288A3F80F
:205EC00066201C4A1188A3F86C1051889288A3F86E10A3F87020184A12689A66174A116839
:205EE0003B2291FBF2F2B2F5C87FC8BF4FF0FF325A67134A1288A3F87820124A5289A3F833
:205F00005E2010BD342F0020AC340020282E0020342E0020402E00205C0C0020400B00203A
:205F2000D80B0020980C0020680D0020781B0020A01B002094020020AC0A002004000020C7
:205F4000281D0020CA0D0020114A30B50028B8BF4042104C90FBF2F304FB03003C256843AA
:205F60000D4D90FBF2F22D682D7B25B903EB830303EB830301E0C3EB031302EB830304FB3E
:205F800002020B804FF47A7392FBF3F24A8030BD80969800806967FFCC1D0020022803D016
:205FA000431E584258417047064B1B681B7823B1054B1868C0F3C0407047044B1878C0F38F
:205FC000800070477C19002044020020D434002008B5084810F0F8F9C0B209280246054B0E
:205FE00004DC01302021C0B29954F6E700221A5408BD00BFE932002008B5074810F0E4F9DB
:20600000C0B21428044B04D8421C20211954D0B2F7E700221A5408BDE9320020254AF0B597
:206020002549264D146800232B700B702CB900234B702F7818461A4615E01A461846A61831
:2060400076880EB9A75C5FB1360548BF013002F1040203F1010348BFC0B2802ADBB2EED195
:206060002B700870E3E7C5B2BD420CD214F8205001302E099E4205F00F05A8BF731C954255
:20608000A8BF6A1CEFE74B708A700D4851084C1E047002F001020B4811440170C3F34702EF
:2060A0000949501E087003F0010308491A440A70F0BD00BF48160020AC1D0020F42600207B
:2060C000FC260020FE260020FF260020FD260020F8B5101A0C461F460CF010FC0546381B7E
:2060E0000CF00CFC174B079E19680CF05BFC2946044628460CF056FC2146074620460CF036
:2061000051FC014638460CF045FB10F06DFD0E490CF048FC0CF032FE069B2146186005F18E
:20612000004010F0D7FB09490CF03CFC08490CF031FB0CF0FDFD0028BCBF00F50C40A030A4
:206140003060F8BD3C0000202C7D8E3FA00CB34500A00C4670B5044640790CF0CBFB1E4941
:206160000CF0D4FC1D4D1E4E2860E07B0CF0C2FB19490CF0CBFCEE606860A0790CF0BAFBDC
:2061800018490CF0C3FC184D2860207C0CF0B2FB11490CF0BBFC6860A07E0CF0ABFB1349C0
:2061A0000CF0B4FCEE60A860E0790CF0A3FB0D490CF0ACFC0E4D2860607C0CF09BFB064950
:2061C0000CF0A4FC6860E07E0CF094FB07490CF09DFCEE60A86070BD0000C842D02E0020E2
:2061E0000000FA4400002041E02E002000007A44042F002044F25063984203DDA0F50C403D
:20620000A0387047034B9842BCBF00F50C40A030704700BFB0B9FFFF10B50A4B0A4A1B785D
:2062200042609C18094A046012789A4204D3D31A0B6000234B6010BDC3F180030B604A60D5
:2062400010BD00BFB92D0020392D0020382D00201FB5684602A9FFF7DFFF044B1868029B34
:206260001844039B184405B05DF804FBA0190020054A064B10781B7883422EBFC0EB0300CB
:20628000C0F18000C0187047B92D0020382D0020024A00231370024A13707047382D0020B6
:2062A000B92D00202DE9F041038A87890446BFB20D461F40002F36D0B7FA87F34FF00042A6
:2062C000DA40D24391B21B3B21821740042BF1D8DFE803F0221F1C1903006B6A33B103F124
:2062E000FF3800231FFA88F86B6203E0B4F82C801FFA88F82E6A002EDCD033683046414600
:2063000098477668F7E72868A18E08E06868218F05E0A868A18F02E0E868B4F840100368FD
:2063200089B29847C6E7BDE8F0810C4B800A98420CD003D8B0F5801F0ED00BE0084B9842D4
:2063400006D04933984205D1002070470220704703207047FE2070470120704701001000F3
:206360000200100090F83B3210B57BB990F83A3290F83922934209D201219940B0F8404271
:2063800001332143A0F84012DBB2F3E710BD8379DB0703D5D1F1010138BF0021D0F8343188
:2063A0005A681B8909B11361704753617047044B53F820301BB107289CBF1B681980704714
:2063C0007415002001F003039B000F229A40984001F0FC0101F1804101F5803110B58C689E
:2063E00024EA02028A608A6802438A6010BD2DE9F0410F88002347FA03F2D2072BD58A78A1
:2064000003F0070512F0100F18BF91F803C002F00F0618BF46EA0C06AD004FF00F0C0CFA0C
:2064200005FC06FA05F5DC0850F82480282A28EA0C0C45EA0C0540F8245005D101229A4056
:20644000C46824EA020205E0482A04D101229A40C4682243C2600133102BCCD1BDE8F08100
:20646000B0F5807F10D0BB2810D8612810D8292810D8132810D8092804D800280CBF0020E0
:20648000062070470520704700207047012070470220704703207047042070472DE9F347B6
:2064A000B84C81462378B84F002B00F0E5813B6862689A1A7C2A40F2DF816360237A002510
:2064C0000133237205F12400C0B201F0F7FCAF4B33F915000CF012FAAD4B064618880CF060
:2064E0000DFA014630460CF011FBAA490CF05AFA0CF01EFC013500B201F00CFD032DE1D1B3
:20650000302001F0DBFCA44BB3F9000001F002FD01F0E2FC237A99072FD19A4B5A6841F2F2
:2065200088339A4219D99D4E102001F0C7FC3068642590FBF5F000B201F0ECFC212001F0B5
:20654000BDFC336893FBF5F005FB103585EAE570A0EBE57000B201F0DDFC142001F0AEFC40
:206560008F4BB3F9000001F0D5FC1C2001F0A6FC002001F0CFFC01F0AFFC237ADFF8048292
:206580005A0740F05681022001F098FCD8F80C306422323393FBF2F000B201F0BBFC814B5F
:2065A0000320B3F9065001F089FC7F4B4FF0050A1B7895FBFAF513F0040FADB27B4E0BD0FD
:2065C0007B48494609F0F8FA20B9336813F0100F18BF002528B205E0D8F810309B89B3FB4B
:2065E000FAF000B201F096FC33689B076BD5DFF8DC81A38A98F80020642505FB0323B4F893
:20660000169052004FEA0919B3FBF2F31FFA89F949EA03291FFA89F9C3F3032349EA0309E4
:20662000062001F04BFC0FFA89F001F073FCE28A98F80030013292B292FBF3F103FB1123D4
:20664000E382A3694F4E9B7B012B05D1392001F035FCB6F914001AE0B38A6E265E43152332
:2066600096FBF3F6B6B23A2001F028FCB6FBF5F80FFA88F001F04EFC3B2001F01FFC05FB08
:20668000186080B205300A2390FBF3F000B201F041FC282001F012FCE3690A2293FBF2F071
:2066A00000B201F037FC042001F008FC23699B8913B101F067F803E0324B186A80F31000C2
:2066C00000B201F027FC3B4B1B689E0640F1A780394E33789D071BD5112001F0EFFBA08CF1
:2066E0004FF4F3656843354B90FBF3F000B201F011FC192001F0E2FBA38C5D43642395FBC9
:20670000F3F595FBF3F203FB125000B201F002FC3378E58C13F0020F08BF0025012001F0ED
:20672000CDFB28B201F0F6FB092001F0C7FB002001F0F0FB224B1D78224B1B88B3F5967F2E
:2067400009D9227A02F00F02072A04D842F20F75AB42B8BF1D46052001F0B0FBA3695B7B89
:206760000BB928B23CE0A5F120000CF0C7F816490CF0CCF9002105460CF0B2FA40B34FF088
:206780003F4127E0B41D0020A4340020D80B00200800002000007A44E40A0020AC0A0020BC
:2067A000040C00205C0C0020D4340020DC00002026040020400200209A020020A08601006E
:2067C000240B00205A0000206666E63F580000204FF07C5128460BF0DDFF0CF0A9FA00B2E5
:2067E00001F098FB3378980703D494F82830012B04D1012384F82830B84816E0B84BB9491C
:206800009D6968680CF0CEF80CF092FAB5490090A8680CF0C7F80CF08BFA019004E0B24A0D
:2068200092E803008DE80300684601F07EFB01F053FB237A282B1FD1A94B00223D681A72E5
:206840004FF47A73B5FBF3F817203C2501F036FBB8FBF5F6B6FBF5F005FB1060000200B25B
:2068600001F058FB182001F029FB05FB168000B201F050FB01F030FB94F83430984D002BE7
:2068800000F0568101F093F9AB6B984AC31A9342064640F2BE80002385F83E3085F8403053
:2068A000AB8A3968DAB21B0A85F85B3085F85130AB6E85F85A20C91AEB6E85F85020DB7BBC
:2068C0004FF47A725A4391420DD3894B1B68AB6695F87030013B012B05D8102385F83E3041
:2068E000022385F84030E1690A2291FBF2F184F85810091284F85910216A794B91FBF2F2FE
:2069000084F85C207B49121284F85D207A4A09781278890784F88B2003D42D2283F88C20CB
